:020000040800F2
:1000000000000120C5020008CB020008CF02000852
:1000100041030008450300088D03000800000000AC
:10002000000000000000000000000000D5030008F0
:10003000D903000800000000DD030008E103000808
:10004000F1030008F1030008F1030008F1030008C0
:10005000F1030008F1030008F1030008F1030008B0
:10006000F1030008F1030008F1030008F1030008A0
:10007000F1030008F1030008F1030008F103000890
:10008000F1030008F1030008F1030008000000007C
:10009000000000000000000000000000F103000864
:1000A000F1030008F1030008F1030008F103000860
:1000B000F1030008F1030008F1030008F103000850
:1000C000F1030008F1030008F1030008F103000840
:1000D000F1030008F1030008F1030008000000002C
:1000E000F1030008F1030008F1030008000000001C
:1000F000000000000000000000000000F103000804
:1001000000000000F1030008F1030008F1030008FB
:1001100000000000000000000000000000000000DF
:10012000F1030008F1030008F1030008F1030008DF
:10013000F1030008000000000000000000000000C3
:10014000000000000000000000000000F1030008B3
:10015000F1030008F1030008F1030008F1030008AF
:10016000F1030008F1030008000000000000000097
:10017000000000000000000000000000000000007F
:1001800000000000F1030008000000000000000073
:10019000F103000800B583B000F0BAF9384B394AD2
:1001A0001360394A1360394900E02146384B9942BF
:1001B0000BD20A684B6801F10C0488689842F4D9A4
:1001C0001168196004330432F8E72E4B1A68314B7A
:1001D0009A4200D0FEE72C4B1A682F4B9A42F9D175
:1001E000274B2E4A13602E4A13602E4B05E0002049
:1001F000106004329342FAD80B462B4A934204D241
:10020000194651F8082B5B68F4E7244B1B6813B9B7
:10021000234B1B6803B1FEE700F07EFD694601A891
:1002200000F022F9214C224BE41AA4100025AC4224
:1002300014DC204C204BE41AA4100025AC4213DC43
:100240000099019800F069FD05461C4C1C4BE41A0E
:10025000A410002C0EDC284600F0E2F8144B53F8F2
:10026000253098470135E2E7134B53F8253098477E
:100270000135E3E7013C124B53F824309847E8E797
:10028000BABADECA0000002020010020F4030008F2
:100290000C04000878563412325476982401002059
:1002A000BC0100200C0400081C0400081C04000809
:1002B0001C0400081C0400081C0400081C0400089E
:1002C0001C04000808B5FFF765FF00BEFEE71EF03E
:1002D000040F0CBFEFF30880EFF309807146414A29
:1002E00010472DE9F04182B004468846124B5E6B00
:1002F0009F6B9D6A1B6B13F0020F03D00E4BDB6AE2
:10030000002B0CDB0D4800F0B7F8CDF800803B4621
:1003100032462946204600F007F900BEFEE74BF6BC
:10032000AB6100F07BF90028ECD0034B4FF00042AA
:10033000DA6202B0BDE8F08100ED00E07417000859
:1003400000BEFEE71EF0040F0CBFEFF30880EFF3D2
:1003500009807146244A10472DE9F04182B00446D5
:100360008846084B5E6B9F6B9D6A074800F084F8D7
:10037000CDF800803B4632462946204600F0D4F8AE
:1003800000BEFEE700ED00E0841700081EF0040F39
:100390000CBFEFF30880EFF309807146134A104752
:1003A0002DE9F04182B004468846084B5E6B9F6B96
:1003B0009D6A074800F060F8CDF800803B46324661
:1003C0002946204600F0B0F800BEFEE700ED00E050
:1003D0009017000800BEFEE700BEFEE700BEFEE785
:1003E00070470000E302000859030008A103000859
:0403F00000BEFEE766
:1003F400D41700080000002024010020D4170008AE
:10040400000000100000001024010020C0010020A2
:080414000000001000000010C0
:10042000FEE7000008B503460C4A12685AB10B4AB1
:100430001068033323F003030344094A934206D8A8
:10044000064A136008BD054A06491160EFE700F04F
:100450008BFC0C2303604FF0FF30F3E728010020F2
:1004600000FC0020C001002001230360014B0B6051
:10047000704700BF040000200FB400B583B004AB88
:1004800053F8042B01938021064800F09FFC0028BC
:1004900003DD0146034800F037F803B05DF804EBD4
:1004A00004B07047300100202DE9F04385B00446C8
:1004B0000F4643560BB10E461EE004252846214642
:1004C000ABBE0446384605B0BDE8F08314F9011B05
:1004D00004AA1A4402F8101C0133AB42F6D304AA52
:1004E0001344002203F8102C4FF00408E94640465C
:1004F0004946ABBE8046761B002EE3D03546102E13
:1005000028BF10250023E8E708B5FFF7CDFF08BD99
:1005100008B500F093F8024A024B9A6008BD00BF8C
:100520000000000800ED00E0F8B504460D4617464F
:100530001E462748FFF7A0FF21682648FFF79CFFCB
:1005400061682548FFF798FFA1682448FFF794FFEA
:10055000E1682348FFF790FF21692248FFF78CFFED
:1005600061692148FFF788FFA1692048FFF784FFF0
:10057000E1691F48FFF780FF1E48FFF77DFF29460E
:100580001D48FFF779FF1D4CE16A1D48FFF774FF16
:10059000216B1C48FFF770FFE16B1B48FFF76CFFF6
:1005A00015F0800F0AD115F4004F0CD11748FFF752
:1005B00063FF06991648FFF75FFFF8BD39461548F7
:1005C000FFF75AFFEFE731461348FFF755FFEDE716
:1005D00058160008681600087816000888160008E3
:1005E00098160008A8160008B8160008C8160008D3
:1005F000D8160008E8160008F416000800ED00E020
:1006000004170008141700082417000854170008DE
:100610005C170008341700084417000883691A881B
:100620008A4201D0002070470268033A012A03D8A9
:100630000233836101207047002070470C4B1A6819
:1006400042F001021A60002199601A6822F0847257
:1006500022F480321A60074A5A601A6822F4802213
:100660001A60D960044B4FF000629A60704700BF77
:10067000003802401030002400ED00E00023222B5F
:1006800000F23882F0B425E10F2B2BD9A3F1100230
:10069000D2B20F2A44D9A3F12002D2B2022A00F228
:1006A0001481B448056803F00F020D325400032290
:1006B000A240D243154005600568AF4E03EB8301AD
:1006C0007718715C01F00301A14029430160C16802
:1006D0000A40C260C168FA7802F00302A2400A43ED
:1006E000C260F2E0A54805685C000322A240D24344
:1006F000154005600568A04E03EB83017718715C17
:1007000001F00301A14029430160C1680A40C260B1
:10071000C168FA7802F00302A2400A43C260D4E042
:100720009748056803F00F0254000322A240D24309
:10073000154005600568904E03EB83017718715CE6
:1007400001F00301A14029430160C1680A40C26071
:10075000C168FA7802F00302A2400A43C260B4E022
:100760000F2B3BD9A3F11002D2B20F2A65D9A3F106
:100770002002D2B2022A00F2A8807E4A156803F055
:100780000F040D3466000320B040C04305401560DF
:100790001768DFF8E4C103EB83010CEB01051CF8DB
:1007A000011001F00301B140394311609168084024
:1007B00090609068A97801F00301B1400143916015
:1007C00051680120A04021EA000151605068697819
:1007D00001F00101A1400143516076E0674A1468CD
:1007E0005E000320B040C043044014601768DFF887
:1007F00088C103EB83040CEB04051CF8044004F0EF
:100800000304B4403C4314609468204090609468B2
:10081000A87800F00300B0402043906050680124A5
:100820009C4020EA040050605468687800F00100A1
:1008300000FA03F12143516047E0514A156803F083
:100840000F0466000320B040C043054015601768E0
:10085000DFF824C103EB83010CEB01051CF8011048
:1008600001F00301B1403943116091680840906084
:100870009068A97801F00301B1400143916051688B
:100880000120A04021EA000151605068697801F020
:100890000101A1400143516017E0072B2CD9A3F1BE
:1008A0000802D2B2072A46D9A3F11002D2B2072A0F
:1008B00068D9A3F11802D2B2072A40F28680A3F1C8
:1008C0002D02D2B2022A40F2A3800133DBB2222BE6
:1008D00000F20E81194603EB83022748825C032A4B
:1008E000F3D801A050F822F089060008610700083B
:1008F0009B080008590A0008204A10685E0003247B
:10090000B44020EA0400106010681B4F9C00214492
:100910007D18795C01F00301B14001431160116A57
:100920000F20A04021EA00011162116A2879A0403D
:1009300001431162C9E7114A10685E000324B44004
:1009400020EA0400106010680B4F9C0021447D18C1
:10095000795C01F00301B14001431160516A0F203D
:10096000A04021EA00015162516A2879A040014368
:100970005162AAE7000802400C000020000002407B
:10098000000402405C4A106803F00F04670003256E
:10099000BD4020EA050010601668584803EB83014B
:1009A0004518405C00F00300B84030431060106A06
:1009B000A1000F248C4020EA04001062106A2C79F8
:1009C00004FA01F1014311627FE74B4A106803F01A
:1009D0000F0467000325BD4020EA0500106016687B
:1009E000464803EB83014518405C00F00300B84023
:1009F00030431060506AA1000F248C4020EA0400AC
:100A00005062506A2C7904FA01F1014351625CE7AB
:100A10003B4A106803F00F040D3467000325BD4006
:100A200020EA050010601668344803EB830145187E
:100A3000405C00F00300B84030431060506AA100F1
:100A40000F248C4020EA04005062506A2C7904FA8A
:100A500001F10143516238E70F2B21D9A3F11002B4
:100A6000D2B20F2A2FD9A3F12D02D2B2022A3FF619
:100A70002CAF2348046803F00F020D325200032507
:100A8000954024EA05040460046803EB83011B4DD0
:100A9000695C01F0030101FA02F22243026014E7EB
:100AA000184D28685E000324B44020EA0400286042
:100AB000286803EB8301114A525C02F00302B24042
:100AC00002432A6001E70C4D2C6803F00F0250002E
:100AD0000322824024EA02022A602C6803EB83018D
:100AE000064A525C02F00302824022432A60ECE68E
:100AF000F0BC7047704700BF000402400C000020AB
:100B00000008024000000240A0F10D03DBB2022BFE
:100B10001DD9A0F11303DBB2012B18D9012917D07D
:100B2000A9B90F283CD9A0F11003DBB20F2B40D993
:100B3000A0F12D03DBB2022B09D823494B6900F049
:100B40000F00012202FA00F023EA0000486170471A
:100B50000F2813D9A0F11003DBB20F2B16D9A0F187
:100B60002D03DBB2022BF2D817494B6900F00F00BE
:100B7000012202FA00F003434B61704713494B69AD
:100B8000012202FA00F018434861704710494B698E
:100B900000F00F00012202FA00F003434B6170479E
:100BA0000A494B69012202FA00F023EA0000486179
:100BB000704707494B6900F00F00012202FA00F06C
:100BC00023EA00034B617047000802400000024026
:100BD00000040240084A136843F001031360064B07
:100BE0001B6813F0020FFAD0034B9A6822F003023D
:100BF0009A609A689A60704700380240032822D8A9
:100C0000DFE800F0020A121A0F48036C012202FA10
:100C100001F11943016470470B48436C012202FA49
:100C200001F11943416470470748036B012202FA3E
:100C300001F11943016370470348436B012202FA33
:100C400001F119434163704700380240024A1368BA
:100C500043F004031360704710E000E0274BDA68AC
:100C60006FF3CF32DA60996840F283600143996094
:100C7000DA686FF30C32DA60196921F48061196166
:100C8000196921F4007119611A691A61DA686FF340
:100C90008A22DA60D96841F40051D960D96841F0FC
:100CA0000801D960D96841F00401D960A3F54C432B
:100CB000DA686FF3CF32DA609A6802439A60DA68D2
:100CC0006FF30C32DA601A6922F480621A611A69D1
:100CD00022F400721A611A691A61DA686FF38A22C3
:100CE000DA60DA6842F40052DA60DA6842F0080248
:100CF000DA60DA6842F00402DA60704700100140FE
:100D0000044B1B6813F0200FFAD0024B5B68037092
:100D1000704700BF00100140704700B583B0FFF777
:100D200059FF00210220FFF769FF04210120FFF78E
:100D300065FFFFF7A3FCFFF791FFFFF787FF03E0D5
:100D400001210846FFF7E0FE0DF10700FFF7D8FF8D
:100D50009DF80730582BF3D0592BF5D100210120F5
:100D6000FFF7D2FEF0E70000014B1868704700BFA4
:100D7000BC00002030B5141E05469BB0184605DAAD
:100D80008B232B604FF0FF301BB030BD4FF402734C
:100D9000ADF80C3014BF04F1FF33234602930593E2
:100DA0004FF6FF7300910491ADF80E3002461E9B82
:100DB0006946284600F072F8431CBCBF8B232B60A9
:100DC000002CE1D0009B00221A70DDE707B50093EC
:100DD00013460A46014603480068FFF7CBFF03B0FD
:100DE0005DF804FBBC0000202DE9F0478E689E42B0
:100DF00082460C469046994637D88A8912F4906FFD
:100E000031D0256809696F1A6569022305EB45052C
:100E100095FBF3F509F101033B449D4238BF1D46A4
:100E2000530530D5294600F07DFB064650B90C230A
:100E3000CAF80030A38943F04003A3814FF0FF308C
:100E4000BDE8F0873A46216900F0FAFAA38923F455
:100E5000906343F08003A381266165613E44ED1BEE
:100E60002660A5604E464E4500D94E463246414664
:100E7000206800F0F0FAA3689B1BA36023681E445F
:100E800026600020DCE72A4600F0A6FB0646002884
:100E9000E2D12169504600F0F7FAC8E72DE9F04F9A
:100EA0009DB0804603938B891D060C4616460FD5D0
:100EB0000B696BB9402100F035FB2060206128B937
:100EC0000C23C8F800304FF0FF30C7E040236361C7
:100ED0000023099320238DF8293030238DF82A3000
:100EE0004FF0010B37463D4615F8013B0BB1252B62
:100EF0003ED1B7EB060A0BD0534632462146404658
:100F0000FFF772FF013000F0A480099B534409935E
:100F10003B78002B00F09D8000234FF0FF32CDE99D
:100F20000523049307938DF853301A932F46052217
:100F300017F8011B4F4800F033FA049BD0B9D906CB
:100F400044BF20228DF853201A0744BF2B228DF86E
:100F500053202A782A2A15D0079A2F4600200A25DE
:100F6000394611F8013B303B092B4DD9B8B10FE0A0
:100F70002F46B8E73F4A801A0BFA00F01843049056
:100F80003D46D3E7039A111D12680391002A01DB45
:100F9000079204E0524243F00203079204933B7825
:100FA0002E2B0CD17B782A2B33D1039B1A1D1B6867
:100FB0000392002BB8BF4FF0FF33023705932E4D3D
:100FC00039780322284600F0EBF938B14023401B62
:100FD00003FA00F0049B0343013704933978274850
:100FE0008DF8281006227E1C00F0DAF9002838D08F
:100FF000234B13BB039B073323F0070308330393EF
:10100000099B4B4409936DE705FB023201200F4613
:10101000A6E700230137059319460A25384610F83C
:10102000012B303A092A03D9002BC8D00591C6E715
:1010300005FB012101230746F0E703AB009322469D
:10104000104B04A94046AFF30080B0F1FF3F81464A
:10105000D6D1A3895B063FF536AF09981DB0BDE830
:10106000F08F03AB00932246064B04A9404600F0E4
:1010700081F8EAE7A0170008A6170008AA170008D9
:1010800000000000E90D00082DE9F04791461F46D9
:101090008A680B69DDF820809342B8BF1346C9F80F
:1010A000003091F8432006460C4612B10133C9F8CE
:1010B00000302368990642BFD9F800300233C9F8DE
:1010C0000030256815F0060507D104F1190AE36818
:1010D000D9F800209B1AAB4228DC94F843302268F0
:1010E000003318BF012392062DD404F14302394680
:1010F0003046C047013020D02368E568D9F8002089
:1011000003F00603042B08BFAD1AA36822690CBFC5
:1011100025EAE57500259342C4BF9B1AED184FF0F0
:1011200000091A344D451AD1002008E00123524627
:1011300039463046C047013003D14FF0FF30BDE89B
:10114000F0870135C3E7E1185A1C302081F84300CD
:10115000224494F8451082F843100233C5E7012376
:10116000224639463046C0470130E6D009F1010930
:10117000D8E700002DE9F04301F1430C0C46097E4D
:1011800085B06E291746064698460C9A00F0B38043
:1011900022D8632936D00AD8002900F0B98058290E
:1011A00000F0838004F1420584F8421032E06429A3
:1011B00001D06929F6D120681368050603F10401FE
:1011C0002AD51B681160002B03DA2D225B4284F8BC
:1011D00043206F480A2239E0732900F09D8008D827
:1011E0006F2920D07029DDD1236843F020032360CC
:1011F00003E0752917D07829D4D1782384F84530B5
:10120000644855E01368191D1B68116004F142051C
:1012100084F8423001238CE01B68116010F0400F0D
:1012200018BF1BB2CFE713682568181D1060280689
:1012300001D51B6802E06806FBD51B8854486F295E
:1012400014BF0A220822002184F843106568A560B3
:10125000002DC0F29580216821F004012160002B4F
:101260003DD1002D40F08E806546082A0BD12368C1
:10127000DB0708D5236962689A42DEBF302305F890
:10128000013C05F1FF35ACEB05032361CDF800808F
:101290003B4603AA21463046FFF7F6FE01304DD10A
:1012A0004FF0FF3005B0BDE8F083394884F84510B1
:1012B000136821681D1D1B6815600A060BD5CA0737
:1012C00044BF41F0200121601BB9226822F02002B6
:1012D00022601022B7E74D0648BF9BB2EFE7654694
:1012E000B3FBF2F102FB1133C35C05F8013D0B4681
:1012F0000029F5D1B9E7136825686169181D1060E8
:1013000028061B6801D5196002E06A06FBD5198022
:10131000002323616546B9E71368191D11601D6834
:1013200062680021284600F03BF808B1401B60606D
:1013300063682361002384F84330A7E723692A46C2
:1013400039463046C0470130AAD023689B0713D4E2
:10135000E068039B9842B8BF1846A3E701234A46BA
:1013600039463046C04701309AD00135E368039AC8
:101370009B1AAB42F2DCEBE7002504F11909F5E713
:10138000002BACD1037884F8423004F142056CE7BD
:10139000B1170008C217000800000000000000009C
:1013A00001F0FF01102A2BDB10F0070F08D010F816
:1013B000013B013A8B422DD010F0070F42B3F6D11A
:1013C000F0B441EA012141EA014122F007047FF033
:1013D00000070023F0E80256083C85EA010586EA8A
:1013E000010685FA47F5A3FA87F586FA47F6A5FAC6
:1013F00087F68EB9EED1F0BC01F0FF0102F00702D2
:1014000032B110F8013B013A83EA010313B1F8D17C
:101410000020704701387047002D06BF354603385D
:10142000073815F0010F07D1013015F4807F02BF96
:10143000013015F4C03F0130F0BC0138704700BFE7
:1014400010B5431E0A44914200D110BD11F8014B62
:1014500003F8014FF7E7884210B501EB020307D804
:10146000421E99420AD011F8014B02F8014FF8E7E9
:101470008342F5D98118D21AD34200D110BD13F896
:10148000014D01F8014DF7E738B50546002945D073
:1014900051F8043C0C1F002BB8BFE41800F0D2F840
:1014A0001F4A1368104633B9636014602846BDE8CC
:1014B000384000F0C8B8A3420CD9216862189342A2
:1014C00004BF1A685B68636004BF5218226004603E
:1014D000ECE713465A680AB1A242FAD919685818BB
:1014E000A0420BD120680144581882421960DDD116
:1014F000106852685A6001441960D7E702D90C237A
:101500002B60D3E7206821188A4204BF1168526813
:10151000626004BF091821605C60C7E738BD00BF86
:10152000B001002070B5CD1C25F0030508350C2D49
:1015300038BF0C25002D064601DBA94203D90C2338
:101540003360002070BD00F07DF8214A1468214608
:1015500091B9204C23681BB9304600F063F8206035
:101560002946304600F05EF8431C24D10C2333603A
:10157000304600F068F8E4E70B685B1B18D40B2BCF
:101580000FD90B60CD50CC18304600F05CF804F158
:101590000B00231D20F00700C31AD3D05A42E2509B
:1015A000D0E78C424B6816BF636013600C46EBE7D4
:1015B0000C464968CCE7C41C24F00304A04205D0C3
:1015C000211A304600F02EF80130CFD02560DBE73D
:1015D000B0010020B4010020F8B5074614460E46BD
:1015E00021B91146BDE8F840FFF79CBF22B9FFF7CB
:1015F0004BFF25462846F8BD00F026F8A0420FD242
:1016000021463846FFF78EFF05460028F2D03146C6
:101610002246FFF715FF31463846FFF735FFE9E769
:101620003546E7E738B5064C0023054608462360F3
:10163000FEF7F8FE431C02D1236803B12B6038BDCE
:10164000B80100207047704751F8043C181F002B68
:10165000BCBF0B58C0187047537461636B2066722F
:10166000616D653A0A000000205230203D2020259F
:101670003038580A00000000205231203D2020253B
:101680003038580A00000000205232203D2020252A
:101690003038580A00000000205233203D20202519
:1016A0003038580A0000000020523132203D2025F9
:1016B0003038580A00000000204C52203D202025E0
:1016C0003038580A00000000205043203D202025DB
:1016D0003038580A0000000020505352203D202589
:1016E0003038580A000000004653522F4641523A03
:1016F0000A0000002043465352203D202025303868
:10170000580A00002048465352203D2020253038FA
:10171000580A00002044465352203D2020253038EE
:10172000580A00002041465352203D2020253038E1
:10173000580A0000204D4D464152203D20253038AA
:10174000580A00002042464152203D2020253038D2
:10175000580A00004D6973630A000000204C522FA4
:101760004558435F52455455524E3D202530385818
:101770000A0000005B486172644661756C745D0A22
:10178000000000005B4275734661756C745D0A0071
:101790005B55736167654661756C745D0A00000096
:1017A000232D302B2000686C4C006566674546474A
:1017B00000303132333435363738394142434445CD
:1017C000460030313233343536373839616263643C
:0317D0006566004B
:1017D400785634122C0100200000000001000001A2
:1017E40000010000010001000001000100000100EF
:1017F40001000001000100000100010000010001DE
:1018040000000100010000010002000001070200C5
:1018140000010701000001000100000100040000B4
:1018240001000400000100040000010001000001A7
:10183400000100000100010000010004000001009B
:10184400040000010001000001000100000100018A
:10185400000001000100000100010000010001007E
:10186400000100010000010001000001000100006E
:10187400010001000001000100000100010000015D
:101884000001000001000100000100FFC000002071
:101894000000000000000000000000000000000044
:1018A4000000000000000000000000000000000034
:1018B4000000000000000000000000000000000024
:1018C4000000000000000000000000000000000014
:1018D4000000000000000000000000000000000004
:1018E40000000000000000000000000000000000F4
:0418F400325476985C
:040000050800019559
:00000001FF
