:020000040800F2
:1000000000000120C5020008CB020008CF02000852
:1000100041030008450300088D03000800000000AC
:10002000000000000000000000000000D5030008F0
:10003000D903000800000000DD0300087D1300085C
:10004000F1030008F1030008F1030008F1030008C0
:10005000F1030008F1030008F1030008F1030008B0
:10006000F1030008F1030008F1030008F1030008A0
:10007000F1030008F1030008F1030008F103000890
:10008000F1030008F1030008F1030008000000007C
:10009000000000000000000000000000F103000864
:1000A000F1030008F1030008F1030008F103000860
:1000B000F1030008F1030008F1030008F103000850
:1000C000F1030008F1030008F1030008F103000840
:1000D000F1030008F1030008F1030008000000002C
:1000E000F1030008F1030008F1030008000000001C
:1000F000000000000000000000000000F103000804
:1001000000000000F1030008F1030008F1030008FB
:1001100000000000000000000000000000000000DF
:10012000F1030008F1030008F1030008F1030008DF
:10013000F1030008000000000000000000000000C3
:10014000000000000000000000000000F1030008B3
:10015000F1030008F1030008F1030008F1030008AF
:10016000F1030008F1030008000000000000000097
:10017000000000000000000000000000000000007F
:1001800000000000F1030008000000000000000073
:10019000F103000800B583B000F046FE384B394A41
:1001A0001360394A1360394900E02146384B9942BF
:1001B0000BD20A684B6801F10C0488689842F4D9A4
:1001C0001168196004330432F8E72E4B1A68314B7A
:1001D0009A4200D0FEE72C4B1A682F4B9A42F9D175
:1001E000274B2E4A13602E4A13602E4B05E0002049
:1001F000106004329342FAD80B462B4A934204D241
:10020000194651F8082B5B68F4E7244B1B6813B9B7
:10021000234B1B6803B1FEE701F014FA694601A8FD
:1002200000F094FD214C224BE41AA4100025AC42AE
:1002300014DC204C204BE41AA4100025AC4213DC43
:100240000099019801F01EFA05461C4C1C4BE41A5B
:10025000A410002C0EDC284600F04AFD144B53F885
:10026000253098470135E2E7134B53F8253098477E
:100270000135E3E7013C124B53F824309847E8E797
:10028000BABADECA000000207C000020F403000897
:100290000C040008785634123254769880000020FE
:1002A0005C0200200C0400081C0400081C04000868
:1002B0001C0400081C0400081C0400081C0400089E
:1002C0001C04000808B5FFF765FF00BEFEE71EF03E
:1002D000040F0CBFEFF30880EFF309807146414A29
:1002E00010472DE9F04182B004468846124B5E6B00
:1002F0009F6B9D6A1B6B13F0020F03D00E4BDB6AE2
:10030000002B0CDB0D4800F033FDCDF800803B46A0
:1003100032462946204600F093FD00BEFEE74BF62C
:10032000AB6100F007FE0028ECD0034B4FF0004219
:10033000DA6202B0BDE8F08100ED00E0583000085C
:1003400000BEFEE71EF0040F0CBFEFF30880EFF3D2
:1003500009807146244A10472DE9F04182B00446D5
:100360008846084B5E6B9F6B9D6A074800F000FD56
:10037000CDF800803B4632462946204600F060FD1D
:1003800000BEFEE700ED00E0683000081EF0040F3C
:100390000CBFEFF30880EFF309807146134A104752
:1003A0002DE9F04182B004468846084B5E6B9F6B96
:1003B0009D6A074800F0DCFCCDF800803B463246E1
:1003C0002946204600F03CFD00BEFEE700ED00E0BF
:1003D0007430000800BEFEE700BEFEE700BEFEE788
:1003E00070470000E302000859030008A103000859
:0403F00000BEFEE766
:1003F400CC3000080000002080000020CC30000831
:1004040000000010000000108000002060020020A6
:080414000000001000000010C0
:1004200010B50446074B1868074BA3FB0030800942
:1004300000F090F8002221464FF0FF3000F044F821
:10044000002010BD0C000020D34D621008B50B4BEE
:100450001A6842F400721A601A6842F480621A60E4
:100460001A6842F480721A60032000F00FF80F201F
:10047000FFF7D6FF01F076F9002008BD003C0240EE
:10048000014B1868704700BF2801002010B50446D2
:10049000C31E042B0FD80A4AD36823F4E0631B045D
:1004A0001B0C240204F4E064234343F0BF6343F4D1
:1004B0000033D36010BDA421024800F04FFCEAE7EE
:1004C00000ED00E0882E000870B505460C46164683
:1004D0000F2A25D80F2C28D81B4BDB68C3F3022327
:1004E000C3F10702042A28BF0422191D062921D9B5
:1004F000033B4FF0FF3101FA02F224EA02049C4070
:1005000001FA03F326EA03063443002D14DB240129
:10051000E4B205F1604505F5614585F8004370BD1D
:10052000BC210A4800F01AFCD4E7BD21074800F0BE
:1005300015FCD1E70023DCE705F00F052401E4B248
:10054000034B5C55EBE700BF00ED00E0882E000890
:1005500014ED00E00138B0F1807F0AD2064B5860FC
:10056000064AF02182F823100020986007221A60C2
:1005700070470120704700BF10E000E000ED00E090
:1005800010B50446042800D038B9042C0BD0094A11
:10059000136823F00403136010BD40F2B311064842
:1005A00000F0DCFBF1E7034A136843F00403136037
:1005B000F2E700BF10E000E0882E000830B583B0FD
:1005C000044603680F2B29D8236813F0010F3DD090
:1005D0006368012B01D9052B25D1A34B9B6803F040
:1005E0000C03042B29D0A04B9B6803F00C03082BB1
:1005F0001ED022799D4B1A706368002B50D0FFF7F4
:100600003FFF0546984B1B6813F4003F1ED1FFF7D0
:1006100037FF401B6428F5D90320E3E1F521944816
:1006200000F09CFBD0E7FA21914800F097FBD4E75B
:100630008D4B5B6813F4800FDBD08B4B1B6813F47E
:10064000003F03D06368002B00F0C981236813F0DA
:10065000020F5DD0E368012B31D823691F2B34D8FA
:10066000814B9B6813F00C0F3AD07F4B9B6803F0D3
:100670000C03082B2FD0E368002B74D07D4B012294
:100680001A60FFF7FDFE0546774B1B6813F0020F5B
:100690005AD1FFF7F5FE401B0228F5D90320A1E14E
:1006A000FFF7EEFE0546704B1B6813F4003FCDD0FC
:1006B000FFF7E6FE401B6428F5D9032092E14FF4D2
:1006C00096716B4800F04AFBC7E740F22D1168486D
:1006D00000F044FBC4E7644B5B6813F4800FCAD19D
:1006E000614B1B6813F0020F04D0E368012B01D0AB
:1006F000012077E15C48036823F0F8032169F822C0
:1007000092FAA2F2B2FA82F201FA02F21343036001
:10071000236813F0080F50D06369012B35D8636943
:10072000002B38D0544B01221A60FFF7A9FE054672
:100730004D4B5B6F13F0020F3FD1FFF7A1FE401B43
:100740000228F5D903204DE14748036823F0F80358
:100750002169F82292FAA2F2B2FA82F201FA02F2C6
:1007600013430360D4E7434B00221A60FFF788FE6F
:1007700005463D4B1B6813F0020FC9D0FFF780FE02
:10078000401B0228F5D903202CE140F26D113848B6
:1007900000F0E4FAC3E7384B00221A60FFF770FE5E
:1007A0000546314B5B6F13F0020F06D0FFF768FE72
:1007B000401B0228F5D9032014E1236813F0040F2D
:1007C00060D0A368012B01D9052B1FD10023019311
:1007D000254B1A6C42F080521A641B6C03F0805354
:1007E0000193019B254A136843F480731360FFF75C
:1007F00047FE0546214B1B6813F4807F0CD1FFF7A1
:100800003FFE401B0228F5D90320EBE040F2971190
:10081000174800F0A3FAD9E7227A194B1A70A36897
:1008200083B1FFF72DFE05460F4B1B6F13F0020F30
:1008300028D1FFF725FE401B41F288339842F3D9B7
:100840000320CFE0FFF71CFE0546074B1B6F13F09C
:10085000020F17D0FFF714FE401B41F28833984275
:10086000F3D90320BEE000BF003802400238024046
:10087000CC2E000800004742800E47420070004026
:1008800070380240A369022B39D8A369002B00F00D
:10089000A880564A926802F00C02082A00F0A48050
:1008A000022B40F08880E36913B1B3F5800F2CD19F
:1008B000236A3F2B2FD8636A323BB3F5BF7F30D812
:1008C000A36A022B05D0042B03D0062B01D0082BE2
:1008D0002DD1E36A043B0B2B2FD8454B00221A6025
:1008E000FFF7CEFD0546414B1B6813F0007F2AD071
:1008F000FFF7C6FD401B0228F5D9032072E04FF434
:10090000E6713C4800F02AFABFE740F2D5113948B9
:1009100000F024FACCE74FF4EB71364800F01EFAF1
:10092000C9E740F2D711334800F018FAC8E74FF48E
:10093000EC71304800F012FACBE740F2D9112D48A3
:1009400000F00CFAC9E7E369226A1343616A47F6CB
:10095000C07292FAA2F2B2FA82F201FA02F21343E0
:10096000A26A5208013A4FF4403191FAA1F1B1FA6A
:1009700081F18A401343E16A4FF0706292FAA2F269
:10098000B2FA82F201FA02F21343184A5360184B8A
:1009900001221A60FFF774FD0446144B1B6813F024
:1009A000007F06D1FFF76CFD001B0228F5D903205C
:1009B00018E0002016E00E4B00221A60FFF760FDE1
:1009C00004460A4B1B6813F0007F06D0FFF758FD62
:1009D000001B0228F5D9032004E0002002E00120DA
:1009E00000E0002003B030BD0120FBE700380240EA
:1009F00060004742CC2E0008214B9B6803F00C039B
:100A0000042B3AD0082B01D01E4870471C4B586865
:100A100000F03F005B6813F4800F1ED01A4AB2FB4F
:100A2000F0F2174B586847F6C073184093FAA3F3D7
:100A3000B3FA83F3D84000FB02F0114B5B6803F478
:100A400040334FF4403292FAA2F2B2FA82F2D3402B
:100A500001335B00B0FBF3F070470A4AB2FBF0F2DF
:100A6000074B586847F6C073184093FAA3F3B3FADC
:100A700083F3D84000FB02F0DFE70348704700BF74
:100A8000003802400024F40040787D0170B504462F
:100A90000D460368013B0E2B11D8072D15D88C4B42
:100AA0001B6803F00F03AB4215D2EBB2884A1370F8
:100AB000136803F00F03AB420DD0012070BD40F26C
:100AC0003721844800F04AF9E7E74FF40E71814876
:100AD00000F044F9E3E7236813F0020F18D0A3688D
:100AE0007BB1802B0DD0902B0BD0A02B09D0B02B3D
:100AF00007D0C02B05D0D02B03D0E02B01D0F02B9A
:100B000037D1754A936823F0F003A1680B439360D3
:100B1000236813F0010F73D06368032B2FD8636829
:100B2000012B32D09A1E012A36D96B4A126812F074
:100B3000020F00F0CA8068498A6822F0030213435A
:100B40008B60FFF79DFC06466368012B2BD0022BC0
:100B500038D0032B45D0604B9B6813F00C0F4FD05F
:100B6000FFF78EFC801B41F288339842F3D90320B3
:100B7000A4E740F24F21574800F0F0F8C1E740F2F7
:100B80005621544800F0EAF8C9E7534A126812F4B3
:100B9000003FD0D1012091E74F4A126812F0007F48
:100BA000C9D101208AE74C4B9B6803F00C03042B4E
:100BB00026D0FFF765FC801B41F288339842F2D9BA
:100BC00003207BE7444B9B6803F00C03082B17D0F2
:100BD000FFF756FC801B41F288339842F2D903207C
:100BE0006CE73D4B9B6803F00C030C2B08D0FFF720
:100BF00047FC801B41F288339842F2D903205DE71D
:100C0000334B1B6803F00F03AB4209D9EAB2304BF8
:100C10001A701B6803F00F03AB4201D001204DE7AF
:100C2000236813F0040F14D0E3685BB1B3F5805F61
:100C300008D0B3F5A05F05D0B3F5C05F02D0B3F51F
:100C4000E05F36D1244A936823F4E053E1680B4314
:100C50009360236813F0080F15D023695BB1B3F5D7
:100C6000805F08D0B3F5A05F05D0B3F5C05F02D0B8
:100C7000B3F5E05F23D1184A936823F460432169F8
:100C800043EAC1039360FFF7B7FE134B9B6803F081
:100C9000F003F02292FAA2F2B2FA82F2D3400F4AA3
:100CA000D35CD8400E4B18600F20FFF7B9FB002033
:100CB00004E74FF42D71074800F050F8C2E740F206
:100CC000BB21044800F04AF8D5E70120F6E600BF52
:100CD000003C0240CC2E000800380240BC2E000828
:100CE0000C000020014B1868704700BF0C0000206A
:100CF000FEE7000008B5034800F052F80120FFF7B6
:100D0000F7FF00BFFC2E000808B503460C4A126826
:100D10005AB10B4A1068033323F003030344094A12
:100D2000934206D8064A136008BD054A0649116079
:100D3000EFE701F02BFC0C2303604FF0FF30F3E7EB
:100D40008400002000FC00206002002001230360DA
:100D5000014B0B60704700BF0400002008B50A4635
:100D60000146024800F004F8FFF7C4FF102F000806
:100D70000FB400B583B004AB53F8042B019380216A
:100D8000064801F03DFC002803DD0146034800F061
:100D900047F803B05DF804EB04B070478C00002006
:100DA00010B5044601F0F8FB0146204600F038F883
:100DB0000121024800F034F810BD00BFD42F000814
:100DC0002DE9F04385B004460F4643560BB10E465D
:100DD0001EE0042528462146ABBE0446384605B031
:100DE000BDE8F08314F9011B04AA1A4402F8101C90
:100DF0000133AB42F6D304AA1344002203F8102CAB
:100E00004FF00408E94640464946ABBE8046761B93
:100E1000002EE3D03546102E28BF10250023E8E72A
:100E200008B5FFF7CDFF08BD08B500F093F8024AFA
:100E3000024B9A6008BD00BF0000000800ED00E012
:100E4000F8B504460D4617461E462748FFF790FFA3
:100E500021682648FFF78CFF61682548FFF788FF67
:100E6000A1682448FFF784FFE1682348FFF780FF6B
:100E700021692248FFF77CFF61692148FFF778FF6D
:100E8000A1692048FFF774FFE1691F48FFF770FF71
:100E90001E48FFF76DFF29461D48FFF769FF1D4CEF
:100EA000E16A1D48FFF764FF216B1C48FFF760FFF4
:100EB000E16B1B48FFF75CFF15F0800F0AD115F4BA
:100EC000004F0CD11748FFF753FF06991648FFF75C
:100ED0004FFFF8BD39461548FFF74AFFEFE73146A7
:100EE0001348FFF745FFEDE73C2F00084C2F0008A3
:100EF0005C2F00086C2F00087C2F00088C2F000846
:100F00009C2F0008AC2F0008BC2F0008CC2F000835
:100F1000D82F000800ED00E0E82F0008F82F0008A7
:100F20000830000838300008403000081830000849
:100F30002830000883691A888A4201D0002070474F
:100F40000268033A012A03D8023383610120704703
:100F5000002070470C4B1A6842F001021A60002111
:100F600099601A6822F0847222F480321A60074A6B
:100F70005A601A6822F480221A60D960044B4FF03C
:100F800000629A60704700BF0038024010300024B1
:100F900000ED00E0224B9B6803F00C03042B14D0FF
:100FA000082B16D01BB11F4B1F4A1A6002E01D4BC5
:100FB0001D4A1A601A4B9B68C3F303131B4AD15C8A
:100FC000184A1368CB4013607047164B184A1A60D2
:100FD000F0E7134B5A685B6803F03F0312F4800F8D
:100FE00013D0134AB2FBF3F20D4B5B68C3F38813C3
:100FF00003FB02F30A4A5268C2F301420132520073
:10100000B3FBF2F3074A1360D4E7074AB2FBF3F2EB
:10101000034B5B68C3F3881303FB02F3EAE700BFEB
:10102000003802400C0000200024F4008430000846
:1010300040787D01431EDBB2042B27D8174BDB68B9
:1010400013F4803FFAD1154B1B69002B1FDB134BA8
:101050001A6922F078021A611A6942EAC00018611E
:101060001A6942F002021A611A6942F480321A6166
:101070000A4BDB6813F4803FFAD1084BDA6842F080
:101080000102DA601A6922F002021A617047034B0A
:10109000034A5A6002F188325A60D8E7003C0240A5
:1010A0002301674530B41C4BDB6813F4803FFAD151
:1010B000194B1B69002B0ADB174B1C6924F4407485
:1010C0001C611C6944F480741C6100241FE0124BF5
:1010D000124C5C6004F188345C60EDE70E4D2B69C6
:1010E00043F001032B6131F8143020F8023B0A4B26
:1010F000DB6813F4803FFAD1074BDD6845F001054A
:10110000DD601D6925F001051D610134E4B29442E2
:10111000E4D330BC704700BF003C02402301674568
:1011200010B5012404E02046FFF784FF0134E4B247
:10113000052CF8D910BD00000F2921D801280BD0AB
:1011400010B1022810D070470E480368490002FA17
:1011500001F11943016070470B480368490002FA26
:1011600001F11943016070470C2909D910B4074CEB
:1011700020684B0002FA03F10143216010BC704764
:10118000704700BF00000240000402400008024017
:1011900007291DD801280BD010B1022810D07047A4
:1011A0001B48036A890002FA01F119430162704782
:1011B0001848036A890002FA01F119430162704775
:1011C0001548036A890002FA01F119430162704768
:1011D0000F291CD801280BD010B1022810D070475D
:1011E0000B48436A890002FA01F1194341627047D2
:1011F0000848436A890002FA01F1194341627047C5
:101200000548436A890002FA01F1194341627047B7
:101210000000024000040240000802400246A0F123
:101220003003D8B2092809D9A2F14103DBB2052B5A
:1012300003D8A2F13700C0B2704700207047000009
:101240002DE9F84F05464078FFF7E8FF0746A878F4
:10125000FFF7E4FF40EA0717FFB2E878FFF7DEFF89
:1012600081462879FFF7DAFF04466879FFF7D6FF51
:101270008046A879FFF7D2FF1E4B5E88240244EA1D
:10128000093444EA0814204340EA06461E6000245C
:1012900027E04FEA840B0BF10903E85CFFF7BEFF80
:1012A00081460BF10A03E85CFFF7B8FF80460BF1BB
:1012B0000B03E85CFFF7B2FF82460BF10C0B15F84D
:1012C0000B00FFF7ABFF000240EA0A3000B240EA31
:1012D000091000B240EA0800074B23F8140001345B
:1012E000E4B27A08A242D4D803493046FFF7DAFEC6
:1012F000BDE8F88F100000203001002008B5037A07
:10130000302B00D008BDFFF79BFFFBE7044B1A68AA
:1013100022F002021A601A6822F004021A60704772
:1013200010E000E0084B586000229A601A6842F012
:1013300001021A601A6842F002021A60034B196037
:10134000034B01221A70704710E000E010010020EA
:101350000C010020074B1A6822F001021A601A687B
:1013600022F002021A6000225A609A60024B1A7040
:10137000704700BF10E000E00C01002008B5134BDF
:101380001B78DBB2022B05D0104B1B78DBB2012B94
:101390000AD008BD0E4B1B6803B198470D4A13686D
:1013A00023F480331360F4E7094B1B6843B198477B
:1013B000084A136823F001031360044B00221A70DB
:1013C000044A136823F480331360E2E70C01002021
:1013D0001001002010E000E0064B9A6822F00102A4
:1013E0009A609A6822F002029A601A6842F001023A
:1013F0001A60704700380240032822D8DFE800F066
:10140000020A121A0F48036B012202FA01F1194372
:10141000016370470B48436B012202FA01F1194343
:10142000416370470748036C012202FA01F1194336
:10143000016470470348436C012202FA01F1194329
:10144000416470470038024070B5C00000F060FE93
:1014500001461C4800F068FF064600F0E9FA044621
:101460000D46304601F072F880B2174B188000F03C
:10147000CDFA02460B462046294600F079F90022B3
:10148000124B00F02DFB00F03DFD054601F05EF82B
:1014900084B2204600F040FE0146284600F086FD5A
:1014A0004FF07C5101F03EF818B9E4B2084B1C70C3
:1014B00070BD4FF07E51284600F07AFD01F046F8ED
:1014C000C4B2F3E70024744B160100200000304042
:1014D0001401002008B5FFF7B7FF194B1B78194A14
:1014E00093600F2B03D9184A138801331380154BCF
:1014F0009A6802F00F029A609A681349098842EAD2
:1015000001129A60DA6842F40042DA60DA6822F482
:101510008052DA60DA6822F48062DA60DA6842F0D7
:101520000802DA60DA6842F00402DA601A6922F42A
:1015300000521A611A6922F480521A6108BD00BF74
:10154000140100200010014016010020024AD36857
:1015500043F40053D360704700100140064B5860BD
:10156000054B1B6813F0400FFAD0034A136823F0B1
:1015700040031360704700BF0010014010B50446DF
:1015800002E0FFF7EBFF013420780028F9D110BD0D
:10159000054B1B6813F0200F04D0034B5B680370EE
:1015A00001207047002070470010014070B594B0D2
:1015B00000240194204B1A6C42F080521A641B6C78
:1015C00003F080530193019B02941C4B1A6842F470
:1015D00040421A601B6803F440430293029B0123BC
:1015E000089309934FF480030F93192310934FF43A
:1015F000A8731193042612960723139302250E95C0
:1016000008A8FEF7DBFF0F230393049505944FF41E
:10161000805306930794294603A8FFF737FAFFF78C
:1016200061FB074BA3FB00308009FEF793FF3046B8
:10163000FEF7A6FF14B070BD0038024000700040F5
:10164000D34D621008B5FEF701FFFFF7AFFFFFF7BC
:10165000A1FC08BD08B5064B01221A70054B064ACD
:101660001A60064B1B68064A1360984708BD00BF06
:101670001D01002008ED00E00040000804400008C3
:101680001801002008B5FFF7A7FE01210020FFF791
:10169000B3FE04210320FFF7AFFE02220621012042
:1016A000FFF74AFD072206210120FFF771FD022204
:1016B00007210120FFF740FD072211460120FFF717
:1016C00067FD4FF41650FFF705FFFFF73FFFFFF7E9
:1016D0001DFE1E496FF07F40FFF724FE1C4B1B7858
:1016E000002B30D11B4B1B781B481844FFF750FFD1
:1016F0000128F3D1FFF72EFE164B1B78164AD25C59
:101700000A2A0CD00133134A1370134B1B7A312B66
:10171000E4D10E496FF07F40FFF704FEDEE70F4B88
:101720001B78012B09D00C48FFF7E8FD0C48FFF7A8
:1017300025FF084B00221A70E7E7FFF7F1FC074B83
:1017400000221A70EFE7002008BD00BF5516000800
:101750001D0100201C010020F801002014000020C1
:10176000943000087047000081F0004102E000BFA3
:1017700083F0004330B54FEA41044FEA430594EA51
:10178000050F08BF90EA020F1FBF54EA000C55EA8C
:10179000020C7FEA645C7FEA655C00F0E2804FEA5D
:1017A0005454D4EB5555B8BF6D420CDD2C4480EA3F
:1017B000020281EA030382EA000083EA010180EA6F
:1017C000020281EA0303362D88BF30BD11F0004FBD
:1017D0004FEA01314FF4801C4CEA113102D04042F3
:1017E00061EB410113F0004F4FEA03334CEA13332E
:1017F00002D0524263EB430394EA050F00F0A78046
:10180000A4F10104D5F1200E0DDB02FA0EFC22FA40
:1018100005F2801841F1000103FA0EF2801843FA34
:1018200005F359410EE0A5F120050EF1200E012A25
:1018300003FA0EFC28BF4CF0020C43FA05F3C01863
:1018400051EBE37101F0004507D54FF0000EDCF1DC
:10185000000C7EEB00006EEB0101B1F5801F1BD385
:10186000B1F5001F0CD349085FEA30004FEA3C0C89
:1018700004F101044FEA445212F5800F80F09A807F
:10188000BCF1004F08BF5FEA500C50F1000041EB83
:10189000045141EA050130BD5FEA4C0C404141EB87
:1018A000010111F4801FA4F10104E9D191F0000FAE
:1018B00004BF01460020B1FA81F308BF2033A3F131
:1018C0000B03B3F120020CDA0C3208DD02F1140C28
:1018D000C2F10C0201FA0CF021FA02F10CE002F163
:1018E0001402D8BFC2F1200C01FA02F120FA0CFC5C
:1018F000DCBF41EA0C019040E41AA2BF01EB0451A5
:10190000294330BD6FEA04041F3C1CDA0C340EDCA2
:1019100004F11404C4F1200220FA04F001FA02F3E5
:1019200040EA030021FA04F345EA030130BDC4F1A3
:101930000C04C4F1200220FA02F001FA04F340EA98
:101940000300294630BD21FA04F0294630BD94F049
:10195000000F83F4801306BF81F480110134013D30
:101960004EE77FEA645C18BF7FEA655C29D094EAA1
:10197000050F08BF90EA020F05D054EA000C04BF1F
:101980001946104630BD91EA030F1EBF002100200A
:1019900030BD5FEA545C05D14000494128BF41F0A9
:1019A000004130BD14F580043CBF01F5801130BD0D
:1019B00001F0004545F0FE4141F470014FF0000098
:1019C00030BD7FEA645C1ABF194610467FEA655C49
:1019D0001CBF0B46024650EA013406BF52EA0335EB
:1019E00091EA030F41F4002130BD00BF90F0000FD9
:1019F00004BF0021704730B54FF4806404F1320415
:101A00004FF000054FF0000150E700BF90F0000FCD
:101A100004BF0021704730B54FF4806404F13204F4
:101A200010F0004548BF40424FF000013EE700BFC4
:101A300042004FEAE2014FEA31014FEA02701FBF54
:101A400012F07F4393F07F4F81F06051704732F086
:101A50007F4208BF704793F07F4F04BF41F40021DD
:101A6000704730B54FF4607401F0004521F000413B
:101A70001CE700BF50EA010208BF704730B54FF0C5
:101A800000050AE050EA010208BF704730B511F0C6
:101A9000004502D5404261EB41014FF4806404F1FE
:101AA00032045FEA915C3FF4D8AE4FF003025FEA84
:101AB000DC0C18BF03325FEADC0C18BF033202EB08
:101AC000DC02C2F1200300FA03FC20FA02F001FA62
:101AD00003FE40EA0E0021FA02F11444BDE600BF05
:101AE00070B54FF0FF0C4CF4E06C1CEA11541DBFB4
:101AF0001CEA135594EA0C0F95EA0C0F00F0DEF87F
:101B00002C4481EA030621EA4C5123EA4C5350EA63
:101B1000013518BF52EA033541F4801143F48013B4
:101B200038D0A0FB02CE4FF00005E1FB02E506F045
:101B30000042E0FB03E54FF00006E1FB03569CF09A
:101B4000000F18BF4EF0010EA4F1FF04B6F5007FA0
:101B500064F5407404D25FEA4E0E6D4146EB060612
:101B600042EAC62141EA55514FEAC52040EA5E509B
:101B70004FEACE2EB4F1FD0C88BFBCF5E06F1ED845
:101B8000BEF1004F08BF5FEA500E50F1000041EB7C
:101B9000045170BD06F0004646EA010140EA020029
:101BA00081EA0301B4EB5C04C2BFD4EB0C0541EA4B
:101BB000045170BD41F480114FF0000E013C00F360
:101BC000AB8014F1360FDEBF002001F0004170BD84
:101BD000C4F10004203C35DA0C341BDC04F114049D
:101BE000C4F1200500FA05F320FA04F001FA05F229
:101BF00040EA020001F0004221F0004110EBD370F6
:101C000021FA04F642EB06015EEA430E08BF20EA21
:101C1000D37070BDC4F10C04C4F1200500FA04F3C4
:101C200020FA05F001FA04F240EA020001F0004156
:101C300010EBD37041F100015EEA430E08BF20EAC9
:101C4000D37070BDC4F1200500FA05F24EEA020E11
:101C500020FA04F301FA05F243EA020321FA04F040
:101C600001F0004121FA04F220EA020000EBD370F7
:101C70005EEA430E08BF20EAD37070BD94F0000FF7
:101C80000FD101F00046400041EB010111F4801F2B
:101C900008BF013CF7D041EA060195F0000F18BFDC
:101CA000704703F00046520043EB030313F4801F18
:101CB00008BF013DF7D043EA0603704794EA0C0FD2
:101CC0000CEA135518BF95EA0C0F0CD050EA4106E8
:101CD00018BF52EA4306D1D181EA030101F0004165
:101CE0004FF0000070BD50EA410606BF104619468D
:101CF00052EA430619D094EA0C0F02D150EA013699
:101D000013D195EA0C0F05D152EA03361CBF1046D9
:101D100019460AD181EA030101F0004141F0FE4178
:101D200041F470014FF0000070BD41F0FE4141F4FC
:101D3000780170BD70B54FF0FF0C4CF4E06C1CEAFC
:101D400011541DBF1CEA135594EA0C0F95EA0C0FB1
:101D500000F0A7F8A4EB050481EA030E52EA03356C
:101D60004FEA013100F088804FEA03334FF080558D
:101D700045EA131343EA12634FEA022245EA1115BA
:101D800045EA10654FEA00260EF000419D4208BF6B
:101D9000964244F1FD0404F5407402D25B084FEA18
:101DA0003202B61A65EB03055B084FEA32024FF4C4
:101DB00080104FF4002CB6EB020E75EB030E22BF21
:101DC000B61A754640EA0C005B084FEA3202B6EBE1
:101DD000020E75EB030E22BFB61A754640EA5C0090
:101DE0005B084FEA3202B6EB020E75EB030E22BF20
:101DF000B61A754640EA9C005B084FEA3202B6EB21
:101E0000020E75EB030E22BFB61A754640EADC00DF
:101E100055EA060E18D04FEA051545EA16754FEA41
:101E200006164FEAC30343EA52734FEAC2025FEA5F
:101E30001C1CC0D111F4801F0BD141EA00014FF0EE
:101E400000004FF0004CB6E711F4801F04BF0143BF
:101E50000020B4F1FD0C88BFBCF5E06F3FF6AFAEDB
:101E6000B5EB030C04BFB6EB020C5FEA500C50F16B
:101E7000000041EB045170BD0EF0004E4EEA1131EE
:101E800014EB5C04C2BFD4EB0C0541EA045170BDF5
:101E900041F480114FF0000E013C90E645EA060E39
:101EA0008DE60CEA135594EA0C0F08BF95EA0C0F67
:101EB0003FF43BAF94EA0C0F0AD150EA01347FF4AF
:101EC00034AF95EA0C0F7FF425AF104619462CE786
:101ED00095EA0C0F06D152EA03353FF4FDAE1046E9
:101EE000194622E750EA410618BF52EA43067FF43A
:101EF000C5AE50EA41047FF40DAF52EA43057FF4CA
:101F0000EBAE12E74FEA4102B2F1E04324BFB3F572
:101F1000001CDCF1FE5C0DD901F0004C4FEAC00260
:101F20004CEA5070B2F1004F40EB830008BF20F044
:101F30000100704711F0804F21D113F13872BCBFFE
:101F400001F00040704741F480114FEA5252C2F153
:101F50001802C2F1200C10FA0CF320FA02F018BF9C
:101F600040F001004FEAC1234FEAD32303FA0CFCEF
:101F700040EA0C0023FA02F34FEA4303CCE77FEA7E
:101F8000625307D150EA01331EBF4FF0FE4040F4C8
:101F90004000704701F0004040F0FE4040F4000077
:101FA000704700BF80F0004002E000BF81F00041B8
:101FB00042001FBF5FEA410392EA030F7FEA226CEF
:101FC0007FEA236C6AD04FEA1262D2EB1363C1BF7F
:101FD000D218414048404140B8BF5B42192B88BFEE
:101FE000704710F0004F40F4000020F07F4018BF11
:101FF000404211F0004F41F4000121F07F4118BF31
:10200000494292EA030F3FD0A2F1010241FA03FCD8
:1020100010EB0C00C3F1200301FA03F100F00043C0
:1020200002D5494260EB4000B0F5000F13D3B0F188
:10203000807F06D340084FEA310102F10102FE2AF7
:1020400051D2B1F1004F40EBC25008BF20F0010067
:1020500040EA03007047490040EB000010F4000F15
:10206000A2F10102EDD1B0FA80FCACF1080CB2EBA8
:102070000C0200FA0CF0AABF00EBC2505242184307
:10208000BCBFD0401843704792F0000F81F40001AC
:1020900006BF80F400000132013BB5E74FEA41037F
:1020A0007FEA226C18BF7FEA236C21D092EA030FEB
:1020B00004D092F0000F08BF0846704790EA010F65
:1020C0001CBF0020704712F07F4F04D1400028BF92
:1020D00040F00040704712F100723CBF00F5000074
:1020E000704700F0004343F0FE4040F400007047AA
:1020F0007FEA226216BF08467FEA23630146420256
:1021000006BF5FEA412390EA010F40F48000704768
:102110004FF0000304E000BF10F0004348BF40420E
:102120005FEA000C08BF704743F0964301464FF04A
:1021300000001CE050EA010208BF70474FF00003A6
:102140000AE000BF50EA010208BF704711F00043E7
:1021500002D5404261EB41015FEA010C02BF8446B7
:102160000146002043F0B64308BFA3F18053A3F516
:102170000003BCFA8CF2083AA3EBC25310DB01FA5D
:1021800002FC634400FA02FCC2F12002BCF1004FE1
:1021900020FA02F243EB020008BF20F00100704772
:1021A00002F1200201FA02FCC2F1200250EA4C00C6
:1021B00021FA02F243EB020008BF20EADC7070470C
:1021C0004FF0FF0C1CEAD0521EBF1CEAD15392EA1A
:1021D0000C0F93EA0C0F6FD01A4480EA010C4002F6
:1021E00018BF5FEA41211ED04FF0006343EA501050
:1021F00043EA5111A0FB01310CF00040B1F5000F92
:102200003EBF490041EAD3715B0040EA010062F140
:102210007F02FD2A1DD8B3F1004F40EBC25008BF2A
:1022200020F00100704790F0000F0CF0004C08BF48
:1022300049024CEA502040EA51207F3AC2BFD2F115
:10224000FF0340EAC250704740F400004FF0000323
:10225000013A5DDC12F1190FDCBF00F0004070475D
:10226000C2F10002410021FA02F1C2F1200200FA9B
:1022700002FC5FEA310040F1000053EA4C0308BF62
:1022800020EADC70704792F0000F00F0004C02BFB3
:10229000400010F4000F013AF9D040EA0C0093F02E
:1022A000000F01F0004C02BF490011F4000F013B88
:1022B000F9D041EA0C018FE70CEAD15392EA0C0FF6
:1022C00018BF93EA0C0F0AD030F0004C18BF31F061
:1022D000004CD8D180EA010000F00040704790F037
:1022E000000F17BF90F0004F084691F0000F91F0DB
:1022F000004F14D092EA0C0F01D142020FD193EAA1
:102300000C0F03D14B0218BF084608D180EA010028
:1023100000F0004040F0FE4040F40000704740F004
:10232000FE4040F4400070474FF0FF0C1CEAD052D2
:102330001EBF1CEAD15392EA0C0F93EA0C0F69D02E
:10234000A2EB030280EA010C49024FEA402037D099
:102350004FF0805343EA111143EA10130CF0004090
:102360008B4238BF5B0042F17D024FF4000C8B4280
:1023700024BF5B1A40EA0C00B3EB510F24BFA3EB60
:10238000510340EA5C00B3EB910F24BFA3EB910330
:1023900040EA9C00B3EBD10F24BFA3EBD10340EA8A
:1023A000DC001B0118BF5FEA1C1CE0D1FD2A3FF6D0
:1023B00050AF8B4240EBC25008BF20F00100704785
:1023C0000CF0004C4CEA50207F32C2BFD2F1FF0328
:1023D00040EAC250704740F400004FF00003013A59
:1023E00037E792F0000F00F0004C02BF400010F4FD
:1023F000000F013AF9D040EA0C0093F0000F01F011
:10240000004C02BF490011F4000F013BF9D041EA32
:102410000C0195E70CEAD15392EA0C0F08D1420265
:102420007FF47DAF93EA0C0F7FF470AF084676E738
:1024300093EA0C0F04D14B023FF44CAF08466EE711
:1024400030F0004C18BF31F0004CCAD130F00042DF
:102450007FF45CAF31F000437FF43CAF5FE700BF37
:102460004FF0FF3C06E000BF4FF0010C02E000BF60
:102470004FF0010C4DF804CD4FEA40024FEA410302
:102480007FEA226C18BF7FEA236C11D001B052EAB8
:10249000530C18BF90EA010F58BFB2EB030088BF7E
:1024A000C81738BF6FEAE17018BF40F001007047ED
:1024B0007FEA226C02D15FEA402C05D17FEA236CCF
:1024C000E4D15FEA412CE1D05DF8040B704700BF16
:1024D000844608466146FFE70FB5FFF7C9FF0028AD
:1024E00048BF10F1000F0FBD4DF808EDFFF7F4FFE6
:1024F0000CBF012000205DF808FB00BF4DF808ED7F
:10250000FFF7EAFF34BF012000205DF808FB00BFA1
:102510004DF808EDFFF7E0FF94BF012000205DF8C3
:1025200008FB00BF4DF808EDFFF7D2FF94BF012074
:1025300000205DF808FB00BF4DF808EDFFF7C8FF6D
:1025400034BF012000205DF808FB00BF42000ED21E
:10255000B2F1FE4F0BD34FF09E03B3EB126209D4DE
:102560004FEA002343F0004323FA02F070474FF094
:102570000000704712F1610F01D1420202D14FF009
:10258000FF3070474FF00000704700BF014B1868E4
:10259000704700BF18000020034613F8012B002AE3
:1025A000FBD1181A0138704730B5141E05469BB090
:1025B000184605DA8B232B604FF0FF301BB030BD7F
:1025C0004FF40273ADF80C3014BF04F1FF3323460F
:1025D000029305934FF6FF7300910491ADF80E300E
:1025E00002461E9B6946284600F072F8431CBCBF99
:1025F0008B232B60002CE1D0009B00221A70DDE7BA
:1026000007B5009313460A46014603480068FFF7E2
:10261000CBFF03B05DF804FB180000202DE9F04764
:102620008E689E4282460C469046994637D88A89E3
:1026300012F4906F31D0256809696F1A6569022319
:1026400005EB450595FBF3F509F101033B449D427C
:1026500038BF1D46530530D5294600F07BFB0646A2
:1026600050B90C23CAF80030A38943F04003A3817A
:102670004FF0FF30BDE8F0873A46216900F0F8FAE4
:10268000A38923F4906343F08003A38126616561ED
:102690003E44ED1B2660A5604E464E4500D94E4691
:1026A00032464146206800F0EEFAA3689B1BA36007
:1026B00023681E4426600020DCE72A4600F0A4FBC5
:1026C00006460028E2D12169504600F0F5FAC8E735
:1026D0002DE9F04F9DB0804603938B891D060C4673
:1026E00016460FD50B696BB9402100F033FB206013
:1026F000206128B90C23C8F800304FF0FF30C7E044
:10270000402363610023099320238DF8293030236F
:102710008DF82A304FF0010B37463D4615F8013B46
:102720000BB1252B3ED1B7EB060A0BD053463246F0
:1027300021464046FFF772FF013000F0A480099B5C
:10274000534409933B78002B00F09D8000234FF009
:10275000FF32CDE90523049307938DF853301A9384
:102760002F46052217F8011B4F4800F031FA049B51
:10277000D0B9D90644BF20228DF853201A0744BF90
:102780002B228DF853202A782A2A15D0079A2F4613
:1027900000200A25394611F8013B303B092B4DD961
:1027A000B8B10FE02F46B8E73F4A801A0BFA00F0A5
:1027B000184304903D46D3E7039A111D1268039114
:1027C000002A01DB079204E0524243F00203079221
:1027D00004933B782E2B0CD17B782A2B33D1039B8F
:1027E0001A1D1B680392002BB8BF4FF0FF3302374E
:1027F00005932E4D39780322284600F0E9F938B1C7
:102800004023401B03FA00F0049B03430137049369
:10281000397827488DF8281006227E1C00F0D8F958
:10282000002838D0234B13BB039B073323F0070347
:1028300008330393099B4B4409936DE705FB023270
:1028400001200F46A6E700230137059319460A2504
:10285000384610F8012B303A092A03D9002BC8D08A
:102860000591C6E705FB012101230746F0E703AB0D
:1028700000932246104B04A94046AFF30080B0F10C
:10288000FF3F8146D6D1A3895B063FF536AF099855
:102890001DB0BDE8F08F03AB00932246064B04A9A0
:1028A000404600F081F8EAE7983000089E300008C2
:1028B000A2300008000000001D2600082DE9F047A6
:1028C00091461F468A680B69DDF820809342B8BFA5
:1028D0001346C9F8003091F8432006460C4612B161
:1028E0000133C9F800302368990642BFD9F8003097
:1028F0000233C9F80030256815F0060507D104F148
:10290000190AE368D9F800209B1AAB4228DC94F836
:1029100043302268003318BF012392062DD404F1FE
:10292000430239463046C047013020D02368E5686D
:10293000D9F8002003F00603042B08BFAD1AA368E2
:1029400022690CBF25EAE57500259342C4BF9B1A96
:10295000ED184FF000091A344D451AD1002008E057
:102960000123524639463046C047013003D14FF06B
:10297000FF30BDE8F0870135C3E7E1185A1C30206D
:1029800081F84300224494F8451082F84310023342
:10299000C5E70123224639463046C0470130E6D01C
:1029A00009F10109D8E700002DE9F04301F1430CDA
:1029B0000C46097E85B06E291746064698460C9A45
:1029C00000F0B38022D8632936D00AD8002900F05D
:1029D000B980582900F0838004F1420584F8421040
:1029E00032E0642901D06929F6D120681368050610
:1029F00003F104012AD51B681160002B03DA2D2294
:102A00005B4284F843206F480A2239E0732900F0C2
:102A10009D8008D86F2920D07029DDD1236843F02C
:102A20002003236003E0752917D07829D4D17823B7
:102A300084F84530644855E01368191D1B6811601F
:102A400004F1420584F8423001238CE01B681160D8
:102A500010F0400F18BF1BB2CFE713682568181D90
:102A60001060280601D51B6802E06806FBD51B88AC
:102A700054486F2914BF0A220822002184F8431009
:102A80006568A560002DC0F29580216821F00401E1
:102A90002160002B3DD1002D40F08E806546082A34
:102AA0000BD12368DB0708D5236962689A42DEBF31
:102AB000302305F8013C05F1FF35ACEB050323613C
:102AC000CDF800803B4603AA21463046FFF7F6FECC
:102AD00001304DD14FF0FF3005B0BDE8F0833948EB
:102AE00084F84510136821681D1D1B6815600A06CF
:102AF0000BD5CA0744BF41F0200121601BB92268F1
:102B000022F0200222601022B7E74D0648BF9BB298
:102B1000EFE76546B3FBF2F102FB1133C35C05F846
:102B2000013D0B460029F5D1B9E7136825686169B5
:102B3000181D106028061B6801D5196002E06A069E
:102B4000FBD51980002323616546B9E71368191D79
:102B500011601D6862680021284600F039F808B14C
:102B6000401B606063682361002384F84330A7E75B
:102B700023692A4639463046C0470130AAD0236827
:102B80009B0713D4E068039B9842B8BF1846A3E79D
:102B900001234A4639463046C04701309AD00135B4
:102BA000E368039A9B1AAB42F2DCEBE7002504F1E1
:102BB0001909F5E7002BACD1037884F8423004F111
:102BC00042056CE7A9300008BA3000080000000098
:102BD00001F0FF01102A2BDB10F0070F08D010F8CE
:102BE000013B013A8B422DD010F0070F42B3F6D1D2
:102BF000F0B441EA012141EA014122F007047FF0EB
:102C000000070023F0E80256083C85EA010586EA41
:102C1000010685FA47F5A3FA87F586FA47F6A5FA7D
:102C200087F68EB9EED1F0BC01F0FF0102F0070289
:102C300032B110F8013B013A83EA010313B1F8D134
:102C40000020704701387047002D06BF3546033815
:102C5000073815F0010F07D1013015F4807F02BF4E
:102C6000013015F4C03F0130F0BC0138704700BF9F
:102C700010B5431E0A44914200D110BD11F8014B1A
:102C800003F8014FF7E7884210B501EB020307D8BC
:102C9000421E99420AD011F8014B02F8014FF8E7A1
:102CA0008342F5D98118D21AD34200D110BD13F84E
:102CB000014D01F8014DF7E738B50546002945D02B
:102CC00051F8043C0C1F002BB8BFE41800F0D2F8F8
:102CD0001F4A1368104633B9636014602846BDE884
:102CE000384000F0C8B8A3420CD92168621893425A
:102CF00004BF1A685B68636004BF521822600460F6
:102D0000ECE713465A680AB1A242FAD91968581872
:102D1000A0420BD120680144581882421960DDD1CD
:102D2000106852685A6001441960D7E702D90C2331
:102D30002B60D3E7206821188A4204BF11685268CB
:102D4000626004BF091821605C60C7E738BD00BF3E
:102D50002001002070B5CD1C25F0030508350C2D91
:102D600038BF0C25002D064601DBA94203D90C23F0
:102D70003360002070BD00F07DF8214A14682146C0
:102D800091B9204C23681BB9304600F063F82060ED
:102D90002946304600F05EF8431C24D10C233360F2
:102DA000304600F068F8E4E70B685B1B18D40B2B87
:102DB0000FD90B60CD50CC18304600F05CF804F110
:102DC0000B00231D20F00700C31AD3D05A42E25053
:102DD000D0E78C424B6816BF636013600C46EBE78C
:102DE0000C464968CCE7C41C24F00304A04205D07B
:102DF000211A304600F02EF80130CFD02560DBE7F5
:102E00002001002024010020F8B5074614460E4694
:102E100021B91146BDE8F840FFF79CBF22B9FFF782
:102E20004BFF25462846F8BD00F026F8A0420FD2F9
:102E300021463846FFF78EFF05460028F2D031467E
:102E40002246FFF715FF31463846FFF735FFE9E721
:102E50003546E7E738B5064C0023054608462360AB
:102E6000FDF752FF431C02D1236803B12B6038BD2C
:102E70002C0100207047704751F8043C181F002BAC
:102E8000BCBF0B58C01870472E2E2F737973746512
:102E90006D2F7372632F73746D333266342D6861D6
:102EA0006C2F73746D3332663478785F68616C5F51
:102EB000636F727465782E630000000000000000EC
:102EC0000102030401020304060708092E2E2F73D2
:102ED000797374656D2F7372632F73746D333266FB
:102EE000342D68616C2F73746D3332663478785F7B
:102EF00068616C5F7263632E6300000061626F72D1
:102F00007428292C2065786974696E672E2E2E002E
:102F10006173736572745F706172616D28292066D8
:102F200061696C65643A2066696C652022257322AC
:102F30002C206C696E652025640A0000537461635F
:102F40006B206672616D653A0A00000020523020E5
:102F50003D2020253038580A000000002052312042
:102F60003D2020253038580A000000002052322031
:102F70003D2020253038580A000000002052332020
:102F80003D2020253038580A000000002052313200
:102F9000203D20253038580A00000000204C5220E7
:102FA0003D2020253038580A0000000020504320E2
:102FB0003D2020253038580A000000002050535290
:102FC000203D20253038580A000000004653522F7B
:102FD0004641523A0A0000002043465352203D2009
:102FE00020253038580A00002048465352203D2002
:102FF00020253038580A00002044465352203D20F6
:1030000020253038580A00002041465352203D20E8
:1030100020253038580A0000204D4D464152203DB1
:1030200020253038580A00002042464152203D20D9
:1030300020253038580A00004D6973630A000000EB
:10304000204C522F4558435F52455455524E3D2017
:10305000253038580A0000005B486172644661758B
:103060006C745D0A000000005B4275734661756C0C
:10307000745D0A005B55736167654661756C745DCC
:103080000A0000000000000000000000010203042C
:10309000060708096F6B0000232D302B2000686C99
:1030A0004C0065666745464700303132333435366B
:1030B00037383941424344454600303132333435A4
:0B30C0003637383961626364656600D2
:1030CC007856341288000020000000000024F40020
:1030DC000000000801FFFFFF1C00002000000000A2
:1030EC0000000000000000000000000000000000D4
:1030FC0000000000000000000000000000000000C4
:10310C0000000000000000000000000000000000B3
:10311C0000000000000000000000000000000000A3
:10312C000000000000000000000000000000000093
:10313C0000000000000000000000000032547698EF
:040000050800019559
:00000001FF
