:020000040800F2
:1000000000000120C5020008CB020008CF02000852
:1000100041030008450300088D03000800000000AC
:10002000000000000000000000000000C1120008F5
:10003000D903000800000000211300088513000800
:10004000F1030008F1030008F1030008F1030008C0
:10005000F1030008F1030008F1030008F1030008B0
:10006000F1030008F1030008F1030008F1030008A0
:10007000F1030008F1030008F1030008F103000890
:10008000F1030008F1030008F1030008000000007C
:10009000000000000000000000000000F103000864
:1000A000F1030008F1030008F1030008F103000860
:1000B000F1030008F1030008F1030008F103000850
:1000C000F1030008F1030008F1030008F103000840
:1000D000F1030008F1030008F1030008000000002C
:1000E000F1030008F1030008F1030008000000001C
:1000F000000000000000000000000000F103000804
:1001000000000000F1030008F1030008F1030008FB
:1001100000000000000000000000000000000000DF
:10012000F1030008F1030008F1030008F1030008DF
:10013000F1030008000000000000000000000000C3
:10014000000000000000000000000000F1030008B3
:10015000F1030008F1030008F1030008F1030008AF
:10016000F1030008F1030008000000000000000097
:10017000000000000000000000000000000000007F
:1001800000000000F1030008000000000000000073
:10019000F103000800B583B000F0BAF9384B394AD2
:1001A0001360394A1360394900E02146384B9942BF
:1001B0000BD20A684B6801F10C0488689842F4D9A4
:1001C0001168196004330432F8E72E4B1A68314B7A
:1001D0009A4200D0FEE72C4B1A682F4B9A42F9D175
:1001E000274B2E4A13602E4A13602E4B05E0002049
:1001F000106004329342FAD80B462B4A934204D241
:10020000194651F8082B5B68F4E7244B1B6813B9B7
:10021000234B1B6803B1FEE700F06EFD694601A8A1
:1002200000F022F9214C224BE41AA4100025AC4224
:1002300014DC204C204BE41AA4100025AC4213DC43
:100240000099019800F06AFE05461C4C1C4BE41A0C
:10025000A410002C0EDC284600F0E2F8144B53F8F2
:10026000253098470135E2E7134B53F8253098477E
:100270000135E3E7013C124B53F824309847E8E797
:10028000BABADECA0000002078000020F40300089B
:100290000C04000878563412325476987C00002002
:1002A0005C2200200C0400081C0400081C04000848
:1002B0001C0400081C0400081C0400081C0400089E
:1002C0001C04000808B5FFF765FF00BEFEE71EF03E
:1002D000040F0CBFEFF30880EFF309807146414A29
:1002E00010472DE9F04182B004468846124B5E6B00
:1002F0009F6B9D6A1B6B13F0020F03D00E4BDB6AE2
:10030000002B0CDB0D4800F0B7F8CDF800803B4621
:1003100032462946204600F00DF900BEFEE74BF6B6
:10032000AB6100F081F90028ECD0034B4FF00042A4
:10033000DA6202B0BDE8F08100ED00E0B02B000809
:1003400000BEFEE71EF0040F0CBFEFF30880EFF3D2
:1003500009807146244A10472DE9F04182B00446D5
:100360008846084B5E6B9F6B9D6A074800F084F8D7
:10037000CDF800803B4632462946204600F0DAF8A8
:1003800000BEFEE700ED00E0C02B00081EF0040FE9
:100390000CBFEFF30880EFF309807146134A104752
:1003A0002DE9F04182B004468846084B5E6B9F6B96
:1003B0009D6A074800F060F8CDF800803B46324661
:1003C0002946204600F0B6F800BEFEE700ED00E04A
:1003D000CC2B000800BEFEE700BEFEE700BEFEE735
:1003E00070470000E302000859030008A103000859
:0403F00000BEFEE766
:1003F400642C0008000000207C000020642C00080D
:1004040000000010000000107C000020602200208A
:080414000000001000000010C0
:10042000FEE7000008B503460C4A12685AB10B4AB1
:100430001068033323F003030344094A934206D8A8
:10044000064A136008BD054A06491160EFE701F04E
:100450009DFE0C2303604FF0FF30F3E78000002087
:1004600000FC00206022002001230360014B0B6090
:10047000704700BF040000200FB400B583B004AB88
:1004800053F8042B01938021064801F0C5FE002893
:1004900003DD0146034800F037F803B05DF804EBD4
:1004A00004B07047880000202DE9F04385B0044671
:1004B0000F4643560BB10E461EE004252846214642
:1004C000ABBE0446384605B0BDE8F08314F9011B05
:1004D00004AA1A4402F8101C0133AB42F6D304AA52
:1004E0001344002203F8102C4FF00408E94640465C
:1004F0004946ABBE8046761B002EE3D03546102E13
:1005000028BF10250023E8E708B5FFF7CDFF08BD99
:1005100008B500F099F8054B054A9A60D3F8882091
:1005200042F47002C3F8882008BD00BF00ED00E06F
:1005300000000008F8B504460D4617461E46274839
:10054000FFF79AFF21682648FFF796FF6168254864
:10055000FFF792FFA1682448FFF78EFFE168234868
:10056000FFF78AFF21692248FFF786FF616921486A
:10057000FFF782FFA1692048FFF77EFFE1691F486E
:10058000FFF77AFF1E48FFF777FF29461D48FFF760
:1005900073FF1D4CE16A1D48FFF76EFF216B1C487D
:1005A000FFF76AFFE16B1B48FFF766FF15F0800F4E
:1005B0000AD115F4004F0CD11748FFF75DFF0699DB
:1005C0001648FFF759FFF8BD39461548FFF754FFA5
:1005D000EFE731461348FFF74FFFEDE7942A000895
:1005E000A42A0008B42A0008C42A0008D42A000853
:1005F000E42A0008F42A0008042B0008142B000841
:10060000242B0008302B000800ED00E0402B0008F0
:10061000502B0008602B0008902B0008982B000836
:10062000702B0008802B000883691A888A4201D049
:10063000002070470268033A012A03D8023383611D
:1006400001207047002070470F49D1F8883043F4EB
:100650007003C1F888300D4B1A6842F001021A602D
:10066000002098601A6822F0847222F480321A60A6
:10067000074A5A601A6822F480221A60D8604FF044
:1006800000638B60704700BF00ED00E0003802405F
:100690001030002408B501220421002000F0ACF83D
:1006A00000231A460421184600F0EEF80122052125
:1006B000002000F0A1F800231A460521184600F09A
:1006C000E3F801220621002000F096F800231A46E4
:1006D0000621184600F0D8F801220721002000F07A
:1006E0008BF800231A460721184600F0CDF808BD04
:1006F00008B501220421002000F07AF90122062128
:10070000002000F075F900220521104600F070F974
:1007100000220721104600F06BF908BD08B5002241
:100720000421104600F064F900220621104600F072
:100730005FF901220521002000F05AF9012207216A
:10074000002000F055F908BD08B50022042110462C
:1007500000F04EF901220621002000F049F90122A3
:100760000521002000F044F900220721104600F086
:100770003FF908BD08B501220421002000F038F936
:1007800000220621104600F033F900220521104610
:1007900000F02EF901220721002000F029F908BD00
:1007A00008B500220421104600F022F9002206219B
:1007B000104600F01DF900220521104600F018F93E
:1007C00000220721104600F013F908BD08B50022E9
:1007D0000821104600F010F802220821002000F045
:1007E000A9F800220921104600F006F8022209218A
:1007F000002000F09FF808BD034620B9A1F10D00CC
:10080000C0B202280ED9012B08D010B4012B18D089
:100810004BB1022B23D05DF8044B7047C81EC0B209
:100820000128F2D87047154B1C684800032181400D
:1008300024EA010119601C6802FA00F121431960E1
:10084000E9E70F4B1C6848000321814024EA0101BD
:1008500019601C6802FA00F121431960DBE7094BBB
:100860001868490003248C4020EA040018601868C6
:1008700002FA01F101431960CDE700BF0000024018
:10088000000402400008024030B401281CD018B116
:10089000022831D030BC70472348446801258D4080
:1008A00024EA0504446044688A4022434260826826
:1008B0004C000321A14022EA01028260826803FA0F
:1008C00004F111438160E5E71848446801258D4033
:1008D00024EA0504446044688A40224342608468F4
:1008E0004A000321914024EA01018160846803FAEF
:1008F00002F121438160CDE70D48446801258D4018
:1009000024EA0504446044688A40224342608268C5
:10091000490003248C4022EA04028260826803FAC0
:1009200001F111438160B5E700000240000402407C
:100930000008024010B4012813D020B102281ED0B4
:100940005DF8044B7047154BD868490003248C4070
:1009500020EA0400D860D86802FA01F10143D960A6
:10096000EEE70F4BD868490003248C4020EA0400CE
:10097000D860D86802FA01F10143D960E0E7094B79
:10098000D868490003248C4020EA0400D860D86865
:1009900002FA01F10143D960D2E700BF0000024032
:1009A000000402400008024001280BD010B10228C8
:1009B00010D070470B4B1B6923FA01F101F00101C4
:1009C00011707047084B1B6923FA01F101F0010116
:1009D00011707047054B1B6923FA01F101F0010109
:1009E00011707047000002400004024000080240FD
:1009F000012817D010B1022827D07047012A0AD049
:100A0000002A2DD11A484369012202FA01F123EA92
:100A10000101416170471648436902FA01F1194327
:100A200041617047012A09D0D2B9124843690122B5
:100A300002FA01F123EA0101416170470D4843695F
:100A400002FA01F1194341617047012A09D03AB90C
:100A500009484369012202FA01F123EA01014161D7
:100A600070470548436902FA01F119434161704733
:100A7000000002400004024000080240034620B982
:100A8000A1F10D00C0B202280ED9012B08D010B47C
:100A9000012B2AD04BB1022B47D05DF8044B704795
:100AA000C81EC0B20128F2D8704707290DD82E4CB5
:100AB000236A89000F20884023EA00032362236A07
:100AC00002FA01F119432162E7E7274C636AA1F1B9
:100AD000080080000F21814023EA01036362636AFA
:100AE00002FA00F119436162D7E707290DD81F4CBC
:100AF000236A89000F20884023EA00032362236AC7
:100B000002FA01F119432162C7E71848446AA1F1CA
:100B100008039B000F21994024EA01014162416AC8
:100B200002FA03F30B434362B7E707290ED9104BD0
:100B3000586A083989000F248C4020EA0400586262
:100B4000586A02FA01F101435962A6E7084C236A88
:100B500089000F20884023EA00032362236A02FAF7
:100B600001F11943216298E70000024000040240AD
:100B700000080240084A136843F001031360064B63
:100B80001B6813F0020FFAD0034B9A6822F003029D
:100B90009A609A689A60704700380240032822D809
:100BA000DFE800F0020A121A0F48036C012202FA71
:100BB00001F11943016470470B48436C012202FAAA
:100BC00001F11943416470470748036B012202FA9F
:100BD00001F11943016370470348436B012202FA94
:100BE00001F11943416370470038024010B42D4BA6
:100BF000DA686FF3CF32DA6000229A60996840F2C7
:100C0000836421439960D96862F30C31D960196912
:100C100021F480611961186920F400701861186965
:100C200020F480501861186920F400501861D968C8
:100C300062F38A21D960D86840F40050D860D8683F
:100C400040F00800D860D86840F00400D860A3F5F0
:100C50004C43D96862F3CF31D960996821439960D8
:100C6000D96862F30C31D960196921F48061196186
:100C7000196921F40071196119691961D96862F360
:100C80008A21D960DA6842F40052DA60DA6842F008
:100C90000802DA60DA6842F00402DA605DF8044BB8
:100CA000704700BF0010014041B9104B1B6813F0A2
:100CB000200FFAD00D4B5B6803707047012902D0FA
:100CC000022909D070470A4B1B6813F0200FFAD095
:100CD000074B5B6803707047064B1B6813F0200FCF
:100CE000FAD0044B5B680370ECE700BF00100140D2
:100CF00000440040001401407047000008B502E0C5
:100D0000282001F02BF94FF0FF310E4B186800F04E
:100D100051FD4FF0FF310C4B186800F04BFDFFF711
:100D200029FD0023094A1370094A1370094B1B78E7
:100D3000002BE5D11A4619460248006800F0AEFCC7
:100D4000DEE700BF20010020240100201801002060
:100D5000190100201B01002008B517E01F4B1B786C
:100D600033BB1A4619461E48006800F097FC1FE086
:100D70001C4B1B781BB9194B1B78012B23D0194B2B
:100D80001B78012B22D0232001F0E8F8164B1B78AA
:100D9000012BF8D1134C224609210020FFF704FE55
:100DA0000E4A08210020FFF7FFFD2378012BD5D044
:100DB0000C4B1B78002BDBD1084B1B78002BD7D1B9
:100DC000FFF796FCD4E7FFF7BFFCD8E7034B1B788F
:100DD000012BD8D1FFF7E4FCD5E700BF19010020B3
:100DE00024010020180100201A01002008B511E09C
:100DF00000231A4619461048006800F04FFC13E023
:100E000000231A4619460D48006800F047FC64208C
:100E100001F0A4F80A4C01212046FFF745FF237892
:100E2000582BE5D0782BE3D0054B1B78592BE7D016
:100E3000792BECD1E4E700BF1C0100202001002049
:100E40005822002000B583B000238DF807303BE026
:100E5000FFF74EFC2C4B1B78782B4AD12B4B0022F2
:100E60001A7001210DF10700FFF71EFF9DF80730F2
:100E7000462BEDD0662BEBD0522B2ED0722B2CD0E4
:100E80004C2B2DD06C2B2BD0472B2CD0672B2AD062
:100E9000532B2BD0732B29D0592B01D0792BD9D19F
:100EA000FFF77EFC194B01221A700021184B1970B4
:100EB0000B460A461748006800F0F0FB134B1B78FE
:100EC000D3B1322001F04AF84FF0FF31124B1868CD
:100ED00000F070FCFFF764FCBCE7FFF735FCB9E7F6
:100EE000FFF748FCB6E7FFF719FCB3E7FFF758FC3C
:100EF000B0E7582BB2D0E1E71A4619460648006819
:100F000000F0CCFBDDE700BF582200201A010020D2
:100F10001B010020200100201C01002000B583B02F
:100F2000FFF728FE00210220FFF738FE01210220F2
:100F3000FFF734FE04210120FFF730FE11210020CD
:100F4000FFF72CFE022211460020FFF755FC02227B
:100F500003210020FFF750FC072202210020FFF7A9
:100F60008DFD072203210020FFF788FDFFF72EFCEF
:100F7000FFF790FBFFF73AFE214B1B68019301241A
:100F80000094002380221F491F4800F027FE1F4BBA
:100F90001B68019302260096002380221C491D48ED
:100FA00000F01CFE1C4B1B680193032500950023D9
:100FB00080221A491A4800F011FE1A4B1B6801934F
:100FC0000096002380221849184800F007FE2A46A0
:100FD0000021204600F03AFB154B18602A460021FC
:100FE000204600F033FB134B18602A4600212046B0
:100FF00000F02CFB104B186000F022FEFEE700BF53
:1010000014010020DC2B0008ED0D00081001002069
:10101000F42B0008450E00080C010020042C0008E9
:10102000590D000808010020202C0008FD0C0008C4
:101030001C0100202001002024010020124A12F08F
:10104000070F1ED0D11D21F00701C1F50053134435
:101050000A460E480260002141601344083B23F019
:1010600007030B48036059601960991A51601360B7
:10107000084B1960084B1960084B4FF000421A608A
:1010800070474FF40053E4E72C010020402100207A
:101090002801002034210020302100202C210020B4
:1010A00010B4134A00E01A4613688342FBD3516818
:1010B000541884420AD041684418A3420BD00360FC
:1010C000904200D010605DF8044B704740680144C6
:1010D00051601046EFE7074C2468A34206D05B68D6
:1010E0001944416013681B680360E9E70460E7E79F
:1010F000402100202801002038B5044600F0D6FD2C
:10110000304B1B68DBB1304B1B681C424DD1631E5A
:1011100013F10A0F4BD804F1080313F0070F05D0A1
:1011200023F0070208329A4243D91346002B42D0DB
:10113000264A12689A4240D325490C6804E0FFF71A
:101140007DFFE0E72146144662689A4202D2226897
:10115000002AF7D11B4A1268A24230D00D68083528
:1011600022680A606268D21A102A18D86268174981
:101170000B689B1A0B60174909688B4201D215490D
:101180000B60114B1B681343636000232360124AFA
:1011900013680133136000F03FFE284638BDE018A5
:1011A00042606360FFF77CFFE0E70025F3E700257E
:1011B000F1E70025EFE70025EDE70025EBE7002547
:1011C000E9E700BF280100202C2100203021002069
:1011D00040210020342100203821002018B338B5E8
:1011E0000446A0F1080550F8042C0F4909680A428A
:1011F00002D050F8080C00B138BD22EA010244F8D0
:10120000042C00F053FD54F8041C084A13680B44E6
:1012100013602846FFF744FF054A13680133136043
:1012200000F0FAFDE8E770472C2100203021002073
:101230003C21002082B0002301934FF0BF0383F3D1
:101240001188BFF36F8FBFF34F8F019B002BFCD032
:1012500002B0704708480068006880F308884FF0C3
:10126000000080F3148862B661B6BFF34F8FBFF3FE
:101270006F8F00DF00BF000008ED00E0DFF80C001A
:10128000016841F4700101607047000088ED00E0E2
:101290004FF0807340F8043C21F0010140F8081C35
:1012A000054B40F80C3C40F8202C6FF0020340F84E
:1012B000243C4438704700BF35120008000000008D
:1012C000074B19680868B0E8F04F80F30988BFF34E
:1012D0006F8F4FF0000080F311887047AFF30080EC
:1012E000482100204FF0BF0383F31188BFF36F8FB5
:1012F000BFF34F8F024A136801331360704700BF7A
:101300000C000020034A1368013B13600BB983F300
:10131000118870470C000020000000000000000051
:10132000EFF30980BFF36F8F154B1A681EF0100F93
:1013300008BF20ED108A20E9F04F10602DE9090068
:101340004FF0BF0080F31188BFF34F8FBFF36F8F53
:1013500000F01EFE4FF0000080F3118809BC1968F0
:101360000868B0E8F04F1EF0100F08BFB0EC108A0C
:1013700080F30988BFF36F8F704700BFAFF3008021
:101380004821002008B54FF0BF0383F31188BFF355
:101390006F8FBFF34F8F00F091FC18B1034B4FF0EC
:1013A00080521A60002383F3118808BD04ED00E029
:1013B000054B00221A6005490A60054A054911607B
:1013C00007221A60704700BF10E000E018E000E05C
:1013D00014E000E03F19010010B50E4B1A6842F40A
:1013E0007F021A601A6842F07F421A60FFF7E0FF3E
:1013F0000024094B1C60FFF741FF084A136843F0C3
:1014000040431360FFF726FF00F0C2FDFFF712FF15
:10141000204610BD20ED00E00C00002034EF00E07D
:1014200000F1080343604FF0FF328260C360036144
:1014300000230360704700230361704730B40D68D8
:10144000B5F1FF3F02D000F1080202E0026904E0BA
:101450001A4653681C68AC42FAD953684B609960CD
:101460008A605160086103680133036030BC7047D3
:1014700003694268816891608268416851605A6876
:10148000824206D0002202611A68013A1A60186886
:10149000704782685A60F5E710B50446FFF722FFEF
:1014A000A26BE36B9A4204D00024FFF72BFF204687
:1014B00010BD0124F9E710B50446FFF713FFA36B35
:1014C00023B10024FFF71EFF204610BD0124F9E7D9
:1014D00070B504461646856B026CEAB166B9406881
:1014E00000F05AFE226C636813446360A268934262
:1014F00012D3236863600FE0C06800F04DFE226CD9
:101500005242E3681344E36021688B4202D2A3682D
:101510001A44E260022E03D00135A563002070BD9D
:10152000002DF9D0013DF7E738B50546FFF7DAFEA3
:1015300095F8454064B203E000F022FE013C64B23D
:10154000002C08DD6B6A33B105F1240000F06CFD5E
:101550000028F3D0F0E7FF2385F84530FFF7D2FEEF
:10156000FFF7C0FE95F8444064B203E000F008FEC7
:10157000013C64B2002C08DD2B6933B105F1100089
:1015800000F052FD0028F3D0F0E7FF2385F8443047
:10159000FFF7B8FE38BD0000002843D038B50D462F
:1015A0000346C26B002A3FD0006C0024A0FB02015E
:1015B00011B91CB1002038E00124FAE71C46FFF7FE
:1015C00091FE2168E26B236C03FB0210A0600020F7
:1015D000A0636160013A02FB0313E360FF2384F818
:1015E000443084F84530A5B923691BB9FFF78AFE5A
:1015F00001201AE004F1100000F016FD0028F5D0DB
:101600000A4B4FF080521A60BFF34F8FBFF36F8FBA
:10161000ECE704F11000FFF703FF04F12400FFF7EB
:10162000FFFEE3E700207047002038BD04ED00E036
:1016300010B5029B0C4639B11A60D8631C640121B5
:101640001846FFF7A9FF10BD1B60F6E7F0B583B0A1
:10165000F0B104460023A1FB0067BFB9D3B901FB79
:1016600004F010F1490F17D817460D464830FFF720
:1016700043FD064638B100903B4600F1480229463A
:101680002046FFF7D5FF304603B0F0BD0123E5E764
:101690000026F8E70026F6E70026F4E7F0B585B067
:1016A00004460F4601921E46002539E0324639466F
:1016B0002046FFF70DFF636A6BB938B13C4B4FF022
:1016C00080521A60BFF34F8FBFF36F8FFFF71AFE80
:1016D000012005B0F0BD04F1240000F0A5FC0028B5
:1016E000F4D0334B4FF080521A60BFF34F8FBFF3EB
:1016F0006F8FEBE7FFF706FE0020EAE702A800F095
:1017000005FD012519E0002384F8443021E0002381
:1017100084F8453023E02046FFF706FF00F07CFB0D
:10172000FFF7E0FDA26BE36B9A42BFD3022EBDD060
:10173000019B002BDED0002DE0D0FFF7E3FD00F091
:10174000B5FAFFF7CFFD94F844305BB2B3F1FF3F39
:10175000D9D094F845305BB2B3F1FF3FD7D0FFF753
:10176000D1FD01A902A800F0DDFCC8B92046FFF7B1
:1017700093FE0028CFD0019904F1100000F046FC40
:101780002046FFF7D1FE00F047FB0028C8D1084BE8
:101790004FF080521A60BFF34F8FBFF36F8FBFE7D8
:1017A0002046FFF7C1FE00F037FB002091E700BFA5
:1017B00004ED00E030B585B004460191002538E025
:1017C000013BA363236923B9FFF79CFD012005B00A
:1017D00030BD04F1100000F027FC0028F4D0354B98
:1017E0004FF080521A60BFF34F8FBFF36F8FEBE75C
:1017F000FFF788FD0020EAE702A800F087FC01253A
:1018000021E0002384F8443029E0002384F84530A7
:101810002BE02046FFF788FE00F0FEFA09E02046A4
:10182000FFF782FE00F0F8FA2046FFF744FE00289A
:101830003DD1FFF757FDA36B002BC1D1019B002BBE
:10184000D6D0002DD8D0FFF75DFD00F02FFAFFF7BE
:1018500049FD94F844305BB2B3F1FF3FD1D094F826
:1018600045305BB2B3F1FF3FCFD0FFF74BFD01A98D
:1018700002A800F057FC0028D1D12046FFF71BFE3C
:101880000028C6D0019904F1240000F0BFFB2046D7
:10189000FFF74AFE00F0C0FA0028CAD1054B4FF00E
:1018A00080521A60BFF34F8FBFF36F8FC1E70020E4
:1018B0008DE700BF04ED00E0074B1B681B6833B1E8
:1018C000054B1B68DB681A68044B1A607047034BB2
:1018D0004FF0FF321A6070474C210020F8210020A1
:1018E00010B50446006BFFF779FC2046FFF776FC45
:1018F00010BD2DE9F84380469946089D099F0A9C32
:10190000266B02F18042013A06EB820626F00706BA
:10191000A1B30A4600230F2B07D8D056E11881F84F
:101920003400D15609B10133F5E7002384F8433080
:10193000042D00D90425E562201DFFF77CFD04F18C
:101940001800FFF778FD2461C5F10505A561646203
:101950000422002104F1440000F029FC01220021AE
:1019600004F1480000F023FC4A4641463046FFF7A8
:101970008FFC206007B13C60BDE8F883002384F849
:101980003430D5E738B5002407E004EB8402930037
:101990000E481844FFF744FD0134042CF5D90C4DD2
:1019A0002846FFF73DFD0B4C2046FFF739FD0A485E
:1019B000FFF736FD0948FFF733FD0948FFF730FD13
:1019C000084B1D60084B1C6038BD00BF542100202F
:1019D000CC210020E0210020042200203022002021
:1019E0001C2200204C2100205021002038B5044644
:1019F000FFF778FC284A136801331360274B1B68F4
:101A00005BB1274B1B686BB9244B1B68DA6AE36A2E
:101A10009A4207D8214B1C6004E0204B1C601368DD
:101A2000012B36D01F4A136801331360E36A012289
:101A30009A401D49086802430A601C4A03EB83036D
:101A4000990011444B68A3609968E1609868211D72
:101A500041609960E06A83001D18A900551865610E
:101A600051580131034498001150FFF74BFC0C4BC7
:101A70001B686BB1094B1B68DA6AE36A9A4207D2AA
:101A80000B4B4FF080521A60BFF34F8FBFF36F8F35
:101A900038BDFFF777FFC5E7B821002048210020B7
:101AA00018220020C4210020C82100205421002039
:101AB00004ED00E00F4B1B68D3B110B5FFF712FC2B
:101AC0000D4BDB68DC68201DFFF7D2FC0B4A136866
:101AD000013B1360074A1368013B1360FFF712FCD8
:101AE0002046FFF7FDFE034B1B68002BE6D110BD1F
:101AF000704700BFBC21002030220020B821002008
:101B000008B5FFF7D7FF064B1B68012BF9D9054B2A
:101B10004FF080521A60BFF34F8FBFF36F8FF0E723
:101B20005421002004ED00E070B504460E46244B1D
:101B30001D68244B18680430FFF79AFC50B9214BFC
:101B40001B68DA6A012303FA02F21F490B6823EAD1
:101B500002030B60B4F1FF3F13D02C44194B1B68F8
:101B60005C60A54224D8194B1868164B19680431DB
:101B7000FFF764FC164B1B68A34220D9144B1C6072
:101B80001DE0002EE9D0134A51680E4B18688160A1
:101B900018688C68C46018688C68043060601868C5
:101BA000043088601B685A6113680133136006E0D3
:101BB000094B1868034B19680431FFF73FFC70BDEF
:101BC0004422002048210020C82100204C21002070
:101BD000F82100201C220020502100202DE9F04394
:101BE00085B007468846154699469000FFF784FA67
:101BF000F8B106464C20FFF77FFA0446A8B1066309
:101C0000D4B10023039302940D9B01930C9B00938A
:101C10004B462A4641463846FFF76BFE2046FFF703
:101C2000E5FE012005B0BDE8F0833046FFF7D6FAA7
:101C3000E6E74FF0FF30F5E74FF0FF30F2E7000046
:101C400000B583B0124B0193002300938022114909
:101C50001148FFF7C3FF012804D0104B1B6803B0E5
:101C60005DF804FB4FF0BF0383F31188BFF36F8F60
:101C7000BFF34F8F0A4B4FF0FF321A60094B01221E
:101C80001A60094B00221A60FFF7A6FBE5E700BFC8
:101C9000F4210020282C0008011B0008100000205F
:101CA000F82100201822002044220020024A136854
:101CB00001331360704700BFC0210020F8B54B4BC3
:101CC0001B68002B40F08C80494B1C6801341C6061
:101CD000ACB1484B1B68A3421ED90020464B1B6881
:101CE000DB6A03EB83039A00444B9B58012B00D91A
:101CF0000120434B1B68002B77D0012075E0414A3F
:101D00001168414B186810601960404A136801332C
:101D10001360FFF7D1FDDCE7002034E0354B4FF0D6
:101D2000FF321A60DAE7334B1A60D7E7D96851609F
:101D300040E000219962116801391160DA6A0121DD
:101D40009140334D2F68394329602C4902EB8202C0
:101D500095000D446A689A609568DD6095686E60CC
:101D60009660DE6AB2009719BD004F195F614D5948
:101D70000135324496008D51DA6A1F4B1B68DB6ACD
:101D80009A4200D301201F4B1B681B68002BC5D053
:101D90001C4B1B68DB68DB685A689442C3D35A69E2
:101DA0009968DD688D60D9689D684D6051681E1D19
:101DB000B142BBD0002159611168013911609A6AA2
:101DC000002ABBD0D9691D6A8D60196ADD694D6032
:101DD000556803F118018D42ABD1196A5160A8E72B
:101DE0000C4A1368013313600020F8BDC0210020A5
:101DF00044220020F8210020482100205421002006
:101E0000482200204C21002050210020FC210020ED
:101E1000C82100200022002038B5FFF763FA464BA6
:101E20001A68013A1A601B68002B7DD1434B1B686E
:101E3000002B50D00023424A1268002A53D0404B56
:101E4000DB68DB689A6AD969186A8860196AD86998
:101E50004860506803F1180188423ED00021996221
:101E60001168013911605A699968D8688860D96821
:101E70009868486051681C1DA14231D00021596109
:101E8000116801391160DA6A012191402D48056815
:101E9000294301602C4902EB820290000844426809
:101EA0009A609068D860906844609460DC6AA20090
:101EB0001519A8000D185D610858013022449400DE
:101EC0000851D96A214A1268D26A9142B3D3204A92
:101ED00001211160AFE7002427E0196A5160BDE7D6
:101EE000D9685160CAE70BB1FFF7E6FC194B1C68D3
:101EF00074B9174B1B68E3B1174B4FF080521A604F
:101F0000BFF34F8FBFF36F8F01240EE0013C07D06A
:101F1000FFF7D4FE0028F9D00D4B01221A60F5E737
:101F20000C4B00221A60E4E70024FFF7EBF920468F
:101F300038BD0024F9E700BFC0210020B8210020EF
:101F400004220020C8210020542100204821002024
:101F5000482200200022002004ED00E010B540B926
:101F60000A4B4FF080521A60BFF34F8FBFF36F8F51
:101F700010BD0446FFF79AFE00212046FFF7D4FD6E
:101F8000FFF74AFF0028EBD0F2E700BF04ED00E0C6
:101F9000194B1B6823BB10B4184B00221A60184B56
:101FA0001B68B3FA83F3DBB2C3F11F0315489A0031
:101FB000D418A10001444C6864684C601A44910034
:101FC0000831084484420FD003EB83039A000D4B81
:101FD00013445B68DA680C4B1A605DF8044B704779
:101FE000064B01221A607047606803EB8302910080
:101FF000044A0A445060E7E7C0210020482200203C
:10200000C8210020542100204821002010B50C4692
:10201000044B19681831FFF711FA01212046FFF728
:1020200083FD10BD4821002030B4C368DB689A6A84
:10203000D969186A8860196AD8694860516803F1DB
:102040001800814241D00021996211680139116064
:10205000284A1268002A3ED15A699968D86888606F
:10206000D9689868486051681C1DA14230D0002191
:102070005961116801391160DA6A012191401E48E5
:102080000568294301601D4902EB82029000084463
:1020900042689A609068D860906844609460DC6A96
:1020A000A2001519A8000D185D61085801302244DE
:1020B00094000851DA6A124B1B68DB6A9A4217D9FE
:1020C0000120104B186030BC7047196A5160BAE7A4
:1020D000D9685160CBE70C4A5168D9618C681C62A1
:1020E0008C68606088609A62116801311160E1E774
:1020F0000020E8E7C0210020C82100205421002052
:10210000482100204822002004220020034B1B68A5
:102110000360034B1B684360704700BFFC21002035
:1021200044220020F8B504460D46FFF7DBF8124BB9
:102130001A686168501A2B68B3F1FF3F1AD02768FC
:102140000E4E3668B74201D0914208D983420AD870
:1021500000232B600124FFF7D5F82046F8BD0023AB
:102160002B600124F7E71B1A2B602046FFF7CEFFF8
:102170000024F0E70024EEE744220020FC210020A8
:10218000014B01221A60704748220020014B186859
:10219000704700BF1400002010B5431E0A4491424E
:1021A00000D110BD11F8014B03F8014FF7E70244CD
:1021B0000346934200D1704703F8011BF9E730B59D
:1021C000141E05469BB0184605DA8B232B604FF092
:1021D000FF301BB030BD4FF40273ADF80C3014BFAC
:1021E00004F1FF332346029305934FF6FF730091EA
:1021F0000491ADF80E3002461E9B6946284600F059
:1022000073F8431CBCBF8B232B60002CE1D0009BD8
:1022100000221A70DDE7000007B5009313460A4656
:10222000014603480068FFF7CAFF03B05DF804FBEE
:10223000140000202DE9F0478E689E4282460C462D
:102240009046994637D88A8912F4906F31D0256824
:1022500009696F1A6569022305EB450595FBF3F5DE
:1022600009F101033B449D4238BF1D46530530D55B
:10227000294600F075FB064650B90C23CAF8003019
:10228000A38943F04003A3814FF0FF30BDE8F087FE
:102290003A462169FFF780FFA38923F4906343F056
:1022A0008003A381266165613E44ED1B2660A56025
:1022B0004E464E4500D94E4632464146206800F013
:1022C000E7FAA3689B1BA36023681E4426600020D6
:1022D000DCE72A4600F09EFB06460028E2D1216991
:1022E000504600F0EFFAC8E72DE9F04F9DB0804668
:1022F00003938B891D060C4616460FD50B696BB9E7
:10230000402100F02DFB2060206128B90C23C8F883
:1023100000304FF0FF30C7E0402363610023099392
:1023200020238DF8293030238DF82A304FF0010B0F
:1023300037463D4615F8013B0BB1252B3ED1B7EB97
:10234000060A0BD05346324621464046FFF772FF3D
:10235000013000F0A480099B534409933B78002B83
:1023600000F09D8000234FF0FF32CDE90523049358
:1023700007938DF853301A932F46052217F8011B47
:102380004F4800F035FA049BD0B9D90644BF20224B
:102390008DF853201A0744BF2B228DF853202A783A
:1023A0002A2A15D0079A2F4600200A25394611F807
:1023B000013B303B092B4DD9B8B10FE02F46B8E7B0
:1023C0003F4A801A0BFA00F0184304903D46D3E7C9
:1023D000039A111D12680391002A01DB079204E0A1
:1023E000524243F00203079204933B782E2B0CD108
:1023F0007B782A2B33D1039B1A1D1B680392002B79
:10240000B8BF4FF0FF33023705932E4D39780322C2
:10241000284600F0EDF938B14023401B03FA00F0E4
:10242000049B034301370493397827488DF828101B
:1024300006227E1C00F0DCF9002838D0234B13BBA9
:10244000039B073323F0070308330393099B4B4493
:1024500009936DE705FB023201200F46A6E7002332
:102460000137059319460A25384610F8012B303AF2
:10247000092A03D9002BC8D00591C6E705FB012125
:1024800001230746F0E703AB00932246104B04A953
:102490004046AFF30080B0F1FF3F8146D6D1A3891B
:1024A0005B063FF536AF09981DB0BDE8F08F03AB72
:1024B00000932246064B04A9404600F081F8EAE763
:1024C000302C0008362C00083A2C000800000000D0
:1024D000352200082DE9F04791461F468A680B69AE
:1024E000DDF820809342B8BF1346C9F8003091F858
:1024F000432006460C4612B10133C9F80030236868
:10250000990642BFD9F800300233C9F80030256877
:1025100015F0060507D104F1190AE368D9F800207F
:102520009B1AAB4228DC94F843302268003318BF72
:10253000012392062DD404F1430239463046C047A8
:10254000013020D02368E568D9F8002003F00603A5
:10255000042B08BFAD1AA36822690CBF25EAE575F4
:1025600000259342C4BF9B1AED184FF000091A349E
:102570004D451AD1002008E0012352463946304625
:10258000C047013003D14FF0FF30BDE8F08701357F
:10259000C3E7E1185A1C302081F84300224494F824
:1025A000451082F843100233C5E70123224639461D
:1025B0003046C0470130E6D009F10109D8E70000F4
:1025C0002DE9F04301F1430C0C46097E85B06E29DC
:1025D0001746064698460C9A00F0B38022D8632925
:1025E00036D00AD8002900F0B980582900F083803D
:1025F00004F1420584F8421032E0642901D06929CF
:10260000F6D120681368050603F104012AD51B687A
:102610001160002B03DA2D225B4284F843206F48BF
:102620000A2239E0732900F09D8008D86F2920D054
:102630007029DDD1236843F02003236003E075296E
:1026400017D07829D4D1782384F84530644855E0F0
:102650001368191D1B68116004F1420584F84230AB
:1026600001238CE01B68116010F0400F18BF1BB2F3
:10267000CFE713682568181D1060280601D51B6870
:1026800002E06806FBD51B8854486F2914BF0A2254
:102690000822002184F843106568A560002DC0F26F
:1026A0009580216821F004012160002B3DD1002D8F
:1026B00040F08E806546082A0BD12368DB0708D5D9
:1026C000236962689A42DEBF302305F8013C05F1B8
:1026D000FF35ACEB05032361CDF800803B4603AA30
:1026E00021463046FFF7F6FE01304DD14FF0FF3066
:1026F00005B0BDE8F083394884F8451013682168B7
:102700001D1D1B6815600A060BD5CA0744BF41F0A2
:10271000200121601BB9226822F0200222601022D1
:10272000B7E74D0648BF9BB2EFE76546B3FBF2F152
:1027300002FB1133C35C05F8013D0B460029F5D1BE
:10274000B9E7136825686169181D106028061B68C1
:1027500001D5196002E06A06FBD5198000232361C8
:102760006546B9E71368191D11601D68626800218C
:10277000284600F03DF808B1401B606063682361A3
:10278000002384F84330A7E723692A4639463046B8
:10279000C0470130AAD023689B0713D4E068039B8D
:1027A0009842B8BF1846A3E701234A463946304647
:1027B000C04701309AD00135E368039A9B1AAB42B7
:1027C000F2DCEBE7002504F11909F5E7002BACD1A9
:1027D000037884F8423004F142056CE7412C00088C
:1027E000522C000800000000000000000000000063
:1027F00001F0FF01102A2BDB10F0070F08D010F8B2
:10280000013B013A8B422DD010F0070F42B3F6D1B5
:10281000F0B441EA012141EA014122F007047FF0CE
:1028200000070023F0E80256083C85EA010586EA25
:10283000010685FA47F5A3FA87F586FA47F6A5FA61
:1028400087F68EB9EED1F0BC01F0FF0102F007026D
:1028500032B110F8013B013A83EA010313B1F8D118
:102860000020704701387047002D06BF35460338F9
:10287000073815F0010F07D1013015F4807F02BF32
:10288000013015F4C03F0130F0BC0138704700BF83
:10289000884210B501EB020307D8421E99420AD0C4
:1028A00011F8014B02F8014FF8E78342F5D981187E
:1028B000D21AD34200D110BD13F8014D01F8014DD9
:1028C000F7E7000038B50546002945D051F8043C2B
:1028D0000C1F002BB8BFE41800F0D2F81F4A136891
:1028E000104633B9636014602846BDE8384000F0F4
:1028F000C8B8A3420CD921686218934204BF1A6871
:102900005B68636004BF521822600460ECE7134602
:102910005A680AB1A242FAD919685818A0420BD1D4
:1029200020680144581882421960DDD1106852684D
:102930005A6001441960D7E702D90C232B60D3E712
:10294000206821188A4204BF11685268626004BF7F
:10295000091821605C60C7E738BD00BF4C22002029
:1029600070B5CD1C25F0030508350C2D38BF0C259E
:10297000002D064601DBA94203D90C233360002059
:1029800070BD00F07DF8214A1468214691B9204CB1
:1029900023681BB9304600F063F8206029463046B2
:1029A00000F05EF8431C24D10C233360304600F065
:1029B00068F8E4E70B685B1B18D40B2B0FD90B608E
:1029C000CD50CC18304600F05CF804F10B00231D0C
:1029D00020F00700C31AD3D05A42E250D0E78C420D
:1029E0004B6816BF636013600C46EBE70C46496802
:1029F000CCE7C41C24F00304A04205D0211A3046C1
:102A000000F02EF80130CFD02560DBE74C2200200B
:102A100050220020F8B5074614460E4621B911464B
:102A2000BDE8F840FFF79CBF22B9FFF74BFF2546F2
:102A30002846F8BD00F026F8A0420FD221463846BD
:102A4000FFF78EFF05460028F2D031462246FFF7F9
:102A5000A3FB31463846FFF735FFE9E73546E7E7A0
:102A600038B5064C0023054608462360FDF7DAFC1E
:102A7000431C02D1236803B12B6038BD54220020CF
:102A80007047704751F8043C181F002BBCBF0B580F
:102A9000C0187047537461636B206672616D653A4C
:102AA0000A000000205230203D2020253038580AEE
:102AB00000000000205231203D2020253038580AE7
:102AC00000000000205232203D2020253038580AD6
:102AD00000000000205233203D2020253038580AC5
:102AE0000000000020523132203D20253038580AA5
:102AF00000000000204C52203D2020253038580A8C
:102B000000000000205043203D2020253038580A86
:102B10000000000020505352203D20253038580A34
:102B2000000000004653522F4641523A0A0000006E
:102B30002043465352203D2020253038580A0000BB
:102B40002048465352203D2020253038580A0000A6
:102B50002044465352203D2020253038580A00009A
:102B60002041465352203D2020253038580A00008D
:102B7000204D4D464152203D20253038580A000056
:102B80002042464152203D2020253038580A00007E
:102B90004D6973630A000000204C522F4558435F73
:102BA00052455455524E3D20253038580A000000F9
:102BB0005B486172644661756C745D0A00000000D8
:102BC0005B4275734661756C745D0A005B55736199
:102BD00067654661756C745D0A00000063686F6F1D
:102BE0007365206D6F646531206F72206D6F646551
:102BF000320000006D6F646520315F6D616E75613C
:102C00006C0000005461736B20746F207265616406
:102C100020696E707574206F6620495200000000B4
:102C20004952206C6566740049444C450000000020
:102C3000232D302B2000686C4C00656667454647A5
:102C40000030313233343536373839414243444528
:102C50004600303132333435363738396162636497
:032C6000656600A6
:102C6400785634128400002000000000AAAAAAAA00
:102C74000400000018000020000000000000000014
:102C84000000000000000000000000000000000040
:102C94000000000000000000000000000000000030
:102CA4000000000000000000000000000000000020
:102CB4000000000000000000000000000000000010
:102CC4000000000000000000000000000000000000
:0C2CD40000000000000000003254769860
:040000050800019559
:00000001FF
